{
  "_format": "hh-sol-artifact-1",
  "contractName": "GovernorContract",
  "sourceName": "contracts/governance_standard/GovernorContract.sol",
  "abi": [
    {
      "inputs": [
        {
          "internalType": "contract IVotes",
          "name": "_token",
          "type": "address"
        },
        {
          "internalType": "contract TimelockController",
          "name": "_timelock",
          "type": "address"
        },
        {
          "internalType": "uint48",
          "name": "_votingDelay",
          "type": "uint48"
        },
        {
          "internalType": "uint32",
          "name": "_votingPeriod",
          "type": "uint32"
        },
        {
          "internalType": "uint256",
          "name": "_quorumPercentage",
          "type": "uint256"
        }
      ],
      "stateMutability": "nonpayable",
      "type": "constructor"
    },
    {
      "inputs": [],
      "name": "CheckpointUnorderedInsertion",
      "type": "error"
    },
    {
      "inputs": [],
      "name": "FailedCall",
      "type": "error"
    },
    {
      "inputs": [
        {
          "internalType": "address",
          "name": "voter",
          "type": "address"
        }
      ],
      "name": "GovernorAlreadyCastVote",
      "type": "error"
    },
    {
      "inputs": [
        {
          "internalType": "uint256",
          "name": "proposalId",
          "type": "uint256"
        }
      ],
      "name": "GovernorAlreadyQueuedProposal",
      "type": "error"
    },
    {
      "inputs": [],
      "name": "GovernorDisabledDeposit",
      "type": "error"
    },
    {
      "inputs": [
        {
          "internalType": "address",
          "name": "proposer",
          "type": "address"
        },
        {
          "internalType": "uint256",
          "name": "votes",
          "type": "uint256"
        },
        {
          "internalType": "uint256",
          "name": "threshold",
          "type": "uint256"
        }
      ],
      "name": "GovernorInsufficientProposerVotes",
      "type": "error"
    },
    {
      "inputs": [
        {
          "internalType": "uint256",
          "name": "targets",
          "type": "uint256"
        },
        {
          "internalType": "uint256",
          "name": "calldatas",
          "type": "uint256"
        },
        {
          "internalType": "uint256",
          "name": "values",
          "type": "uint256"
        }
      ],
      "name": "GovernorInvalidProposalLength",
      "type": "error"
    },
    {
      "inputs": [
        {
          "internalType": "uint256",
          "name": "quorumNumerator",
          "type": "uint256"
        },
        {
          "internalType": "uint256",
          "name": "quorumDenominator",
          "type": "uint256"
        }
      ],
      "name": "GovernorInvalidQuorumFraction",
      "type": "error"
    },
    {
      "inputs": [
        {
          "internalType": "address",
          "name": "voter",
          "type": "address"
        }
      ],
      "name": "GovernorInvalidSignature",
      "type": "error"
    },
    {
      "inputs": [],
      "name": "GovernorInvalidVoteParams",
      "type": "error"
    },
    {
      "inputs": [],
      "name": "GovernorInvalidVoteType",
      "type": "error"
    },
    {
      "inputs": [
        {
          "internalType": "uint256",
          "name": "votingPeriod",
          "type": "uint256"
        }
      ],
      "name": "GovernorInvalidVotingPeriod",
      "type": "error"
    },
    {
      "inputs": [
        {
          "internalType": "uint256",
          "name": "proposalId",
          "type": "uint256"
        }
      ],
      "name": "GovernorNonexistentProposal",
      "type": "error"
    },
    {
      "inputs": [
        {
          "internalType": "uint256",
          "name": "proposalId",
          "type": "uint256"
        }
      ],
      "name": "GovernorNotQueuedProposal",
      "type": "error"
    },
    {
      "inputs": [
        {
          "internalType": "address",
          "name": "account",
          "type": "address"
        }
      ],
      "name": "GovernorOnlyExecutor",
      "type": "error"
    },
    {
      "inputs": [],
      "name": "GovernorQueueNotImplemented",
      "type": "error"
    },
    {
      "inputs": [
        {
          "internalType": "address",
          "name": "proposer",
          "type": "address"
        }
      ],
      "name": "GovernorRestrictedProposer",
      "type": "error"
    },
    {
      "inputs": [
        {
          "internalType": "uint256",
          "name": "proposalId",
          "type": "uint256"
        },
        {
          "internalType": "address",
          "name": "account",
          "type": "address"
        }
      ],
      "name": "GovernorUnableToCancel",
      "type": "error"
    },
    {
      "inputs": [
        {
          "internalType": "uint256",
          "name": "proposalId",
          "type": "uint256"
        },
        {
          "internalType": "enum IGovernor.ProposalState",
          "name": "current",
          "type": "uint8"
        },
        {
          "internalType": "bytes32",
          "name": "expectedStates",
          "type": "bytes32"
        }
      ],
      "name": "GovernorUnexpectedProposalState",
      "type": "error"
    },
    {
      "inputs": [
        {
          "internalType": "address",
          "name": "account",
          "type": "address"
        },
        {
          "internalType": "uint256",
          "name": "currentNonce",
          "type": "uint256"
        }
      ],
      "name": "InvalidAccountNonce",
      "type": "error"
    },
    {
      "inputs": [],
      "name": "InvalidShortString",
      "type": "error"
    },
    {
      "inputs": [
        {
          "internalType": "uint8",
          "name": "bits",
          "type": "uint8"
        },
        {
          "internalType": "uint256",
          "name": "value",
          "type": "uint256"
        }
      ],
      "name": "SafeCastOverflowedUintDowncast",
      "type": "error"
    },
    {
      "inputs": [
        {
          "internalType": "string",
          "name": "str",
          "type": "string"
        }
      ],
      "name": "StringTooLong",
      "type": "error"
    },
    {
      "anonymous": false,
      "inputs": [],
      "name": "EIP712DomainChanged",
      "type": "event"
    },
    {
      "anonymous": false,
      "inputs": [
        {
          "indexed": false,
          "internalType": "uint256",
          "name": "proposalId",
          "type": "uint256"
        }
      ],
      "name": "ProposalCanceled",
      "type": "event"
    },
    {
      "anonymous": false,
      "inputs": [
        {
          "indexed": false,
          "internalType": "uint256",
          "name": "proposalId",
          "type": "uint256"
        },
        {
          "indexed": false,
          "internalType": "address",
          "name": "proposer",
          "type": "address"
        },
        {
          "indexed": false,
          "internalType": "address[]",
          "name": "targets",
          "type": "address[]"
        },
        {
          "indexed": false,
          "internalType": "uint256[]",
          "name": "values",
          "type": "uint256[]"
        },
        {
          "indexed": false,
          "internalType": "string[]",
          "name": "signatures",
          "type": "string[]"
        },
        {
          "indexed": false,
          "internalType": "bytes[]",
          "name": "calldatas",
          "type": "bytes[]"
        },
        {
          "indexed": false,
          "internalType": "uint256",
          "name": "voteStart",
          "type": "uint256"
        },
        {
          "indexed": false,
          "internalType": "uint256",
          "name": "voteEnd",
          "type": "uint256"
        },
        {
          "indexed": false,
          "internalType": "string",
          "name": "description",
          "type": "string"
        }
      ],
      "name": "ProposalCreated",
      "type": "event"
    },
    {
      "anonymous": false,
      "inputs": [
        {
          "indexed": false,
          "internalType": "uint256",
          "name": "proposalId",
          "type": "uint256"
        }
      ],
      "name": "ProposalExecuted",
      "type": "event"
    },
    {
      "anonymous": false,
      "inputs": [
        {
          "indexed": false,
          "internalType": "uint256",
          "name": "proposalId",
          "type": "uint256"
        },
        {
          "indexed": false,
          "internalType": "uint256",
          "name": "etaSeconds",
          "type": "uint256"
        }
      ],
      "name": "ProposalQueued",
      "type": "event"
    },
    {
      "anonymous": false,
      "inputs": [
        {
          "indexed": false,
          "internalType": "uint256",
          "name": "oldProposalThreshold",
          "type": "uint256"
        },
        {
          "indexed": false,
          "internalType": "uint256",
          "name": "newProposalThreshold",
          "type": "uint256"
        }
      ],
      "name": "ProposalThresholdSet",
      "type": "event"
    },
    {
      "anonymous": false,
      "inputs": [
        {
          "indexed": false,
          "internalType": "uint256",
          "name": "oldQuorumNumerator",
          "type": "uint256"
        },
        {
          "indexed": false,
          "internalType": "uint256",
          "name": "newQuorumNumerator",
          "type": "uint256"
        }
      ],
      "name": "QuorumNumeratorUpdated",
      "type": "event"
    },
    {
      "anonymous": false,
      "inputs": [
        {
          "indexed": false,
          "internalType": "address",
          "name": "oldTimelock",
          "type": "address"
        },
        {
          "indexed": false,
          "internalType": "address",
          "name": "newTimelock",
          "type": "address"
        }
      ],
      "name": "TimelockChange",
      "type": "event"
    },
    {
      "anonymous": false,
      "inputs": [
        {
          "indexed": true,
          "internalType": "address",
          "name": "voter",
          "type": "address"
        },
        {
          "indexed": false,
          "internalType": "uint256",
          "name": "proposalId",
          "type": "uint256"
        },
        {
          "indexed": false,
          "internalType": "uint8",
          "name": "support",
          "type": "uint8"
        },
        {
          "indexed": false,
          "internalType": "uint256",
          "name": "weight",
          "type": "uint256"
        },
        {
          "indexed": false,
          "internalType": "string",
          "name": "reason",
          "type": "string"
        }
      ],
      "name": "VoteCast",
      "type": "event"
    },
    {
      "anonymous": false,
      "inputs": [
        {
          "indexed": true,
          "internalType": "address",
          "name": "voter",
          "type": "address"
        },
        {
          "indexed": false,
          "internalType": "uint256",
          "name": "proposalId",
          "type": "uint256"
        },
        {
          "indexed": false,
          "internalType": "uint8",
          "name": "support",
          "type": "uint8"
        },
        {
          "indexed": false,
          "internalType": "uint256",
          "name": "weight",
          "type": "uint256"
        },
        {
          "indexed": false,
          "internalType": "string",
          "name": "reason",
          "type": "string"
        },
        {
          "indexed": false,
          "internalType": "bytes",
          "name": "params",
          "type": "bytes"
        }
      ],
      "name": "VoteCastWithParams",
      "type": "event"
    },
    {
      "anonymous": false,
      "inputs": [
        {
          "indexed": false,
          "internalType": "uint256",
          "name": "oldVotingDelay",
          "type": "uint256"
        },
        {
          "indexed": false,
          "internalType": "uint256",
          "name": "newVotingDelay",
          "type": "uint256"
        }
      ],
      "name": "VotingDelaySet",
      "type": "event"
    },
    {
      "anonymous": false,
      "inputs": [
        {
          "indexed": false,
          "internalType": "uint256",
          "name": "oldVotingPeriod",
          "type": "uint256"
        },
        {
          "indexed": false,
          "internalType": "uint256",
          "name": "newVotingPeriod",
          "type": "uint256"
        }
      ],
      "name": "VotingPeriodSet",
      "type": "event"
    },
    {
      "inputs": [],
      "name": "BALLOT_TYPEHASH",
      "outputs": [
        {
          "internalType": "bytes32",
          "name": "",
          "type": "bytes32"
        }
      ],
      "stateMutability": "view",
      "type": "function"
    },
    {
      "inputs": [],
      "name": "CLOCK_MODE",
      "outputs": [
        {
          "internalType": "string",
          "name": "",
          "type": "string"
        }
      ],
      "stateMutability": "view",
      "type": "function"
    },
    {
      "inputs": [],
      "name": "COUNTING_MODE",
      "outputs": [
        {
          "internalType": "string",
          "name": "",
          "type": "string"
        }
      ],
      "stateMutability": "pure",
      "type": "function"
    },
    {
      "inputs": [],
      "name": "EXTENDED_BALLOT_TYPEHASH",
      "outputs": [
        {
          "internalType": "bytes32",
          "name": "",
          "type": "bytes32"
        }
      ],
      "stateMutability": "view",
      "type": "function"
    },
    {
      "inputs": [
        {
          "internalType": "address[]",
          "name": "targets",
          "type": "address[]"
        },
        {
          "internalType": "uint256[]",
          "name": "values",
          "type": "uint256[]"
        },
        {
          "internalType": "bytes[]",
          "name": "calldatas",
          "type": "bytes[]"
        },
        {
          "internalType": "bytes32",
          "name": "descriptionHash",
          "type": "bytes32"
        }
      ],
      "name": "cancel",
      "outputs": [
        {
          "internalType": "uint256",
          "name": "",
          "type": "uint256"
        }
      ],
      "stateMutability": "nonpayable",
      "type": "function"
    },
    {
      "inputs": [
        {
          "internalType": "uint256",
          "name": "proposalId",
          "type": "uint256"
        },
        {
          "internalType": "uint8",
          "name": "support",
          "type": "uint8"
        }
      ],
      "name": "castVote",
      "outputs": [
        {
          "internalType": "uint256",
          "name": "",
          "type": "uint256"
        }
      ],
      "stateMutability": "nonpayable",
      "type": "function"
    },
    {
      "inputs": [
        {
          "internalType": "uint256",
          "name": "proposalId",
          "type": "uint256"
        },
        {
          "internalType": "uint8",
          "name": "support",
          "type": "uint8"
        },
        {
          "internalType": "address",
          "name": "voter",
          "type": "address"
        },
        {
          "internalType": "bytes",
          "name": "signature",
          "type": "bytes"
        }
      ],
      "name": "castVoteBySig",
      "outputs": [
        {
          "internalType": "uint256",
          "name": "",
          "type": "uint256"
        }
      ],
      "stateMutability": "nonpayable",
      "type": "function"
    },
    {
      "inputs": [
        {
          "internalType": "uint256",
          "name": "proposalId",
          "type": "uint256"
        },
        {
          "internalType": "uint8",
          "name": "support",
          "type": "uint8"
        },
        {
          "internalType": "string",
          "name": "reason",
          "type": "string"
        }
      ],
      "name": "castVoteWithReason",
      "outputs": [
        {
          "internalType": "uint256",
          "name": "",
          "type": "uint256"
        }
      ],
      "stateMutability": "nonpayable",
      "type": "function"
    },
    {
      "inputs": [
        {
          "internalType": "uint256",
          "name": "proposalId",
          "type": "uint256"
        },
        {
          "internalType": "uint8",
          "name": "support",
          "type": "uint8"
        },
        {
          "internalType": "string",
          "name": "reason",
          "type": "string"
        },
        {
          "internalType": "bytes",
          "name": "params",
          "type": "bytes"
        }
      ],
      "name": "castVoteWithReasonAndParams",
      "outputs": [
        {
          "internalType": "uint256",
          "name": "",
          "type": "uint256"
        }
      ],
      "stateMutability": "nonpayable",
      "type": "function"
    },
    {
      "inputs": [
        {
          "internalType": "uint256",
          "name": "proposalId",
          "type": "uint256"
        },
        {
          "internalType": "uint8",
          "name": "support",
          "type": "uint8"
        },
        {
          "internalType": "address",
          "name": "voter",
          "type": "address"
        },
        {
          "internalType": "string",
          "name": "reason",
          "type": "string"
        },
        {
          "internalType": "bytes",
          "name": "params",
          "type": "bytes"
        },
        {
          "internalType": "bytes",
          "name": "signature",
          "type": "bytes"
        }
      ],
      "name": "castVoteWithReasonAndParamsBySig",
      "outputs": [
        {
          "internalType": "uint256",
          "name": "",
          "type": "uint256"
        }
      ],
      "stateMutability": "nonpayable",
      "type": "function"
    },
    {
      "inputs": [],
      "name": "clock",
      "outputs": [
        {
          "internalType": "uint48",
          "name": "",
          "type": "uint48"
        }
      ],
      "stateMutability": "view",
      "type": "function"
    },
    {
      "inputs": [],
      "name": "eip712Domain",
      "outputs": [
        {
          "internalType": "bytes1",
          "name": "fields",
          "type": "bytes1"
        },
        {
          "internalType": "string",
          "name": "name",
          "type": "string"
        },
        {
          "internalType": "string",
          "name": "version",
          "type": "string"
        },
        {
          "internalType": "uint256",
          "name": "chainId",
          "type": "uint256"
        },
        {
          "internalType": "address",
          "name": "verifyingContract",
          "type": "address"
        },
        {
          "internalType": "bytes32",
          "name": "salt",
          "type": "bytes32"
        },
        {
          "internalType": "uint256[]",
          "name": "extensions",
          "type": "uint256[]"
        }
      ],
      "stateMutability": "view",
      "type": "function"
    },
    {
      "inputs": [
        {
          "internalType": "address[]",
          "name": "targets",
          "type": "address[]"
        },
        {
          "internalType": "uint256[]",
          "name": "values",
          "type": "uint256[]"
        },
        {
          "internalType": "bytes[]",
          "name": "calldatas",
          "type": "bytes[]"
        },
        {
          "internalType": "bytes32",
          "name": "descriptionHash",
          "type": "bytes32"
        }
      ],
      "name": "execute",
      "outputs": [
        {
          "internalType": "uint256",
          "name": "",
          "type": "uint256"
        }
      ],
      "stateMutability": "payable",
      "type": "function"
    },
    {
      "inputs": [
        {
          "internalType": "address[]",
          "name": "targets",
          "type": "address[]"
        },
        {
          "internalType": "uint256[]",
          "name": "values",
          "type": "uint256[]"
        },
        {
          "internalType": "bytes[]",
          "name": "calldatas",
          "type": "bytes[]"
        },
        {
          "internalType": "bytes32",
          "name": "descriptionHash",
          "type": "bytes32"
        }
      ],
      "name": "getProposalId",
      "outputs": [
        {
          "internalType": "uint256",
          "name": "",
          "type": "uint256"
        }
      ],
      "stateMutability": "view",
      "type": "function"
    },
    {
      "inputs": [
        {
          "internalType": "address",
          "name": "account",
          "type": "address"
        },
        {
          "internalType": "uint256",
          "name": "timepoint",
          "type": "uint256"
        }
      ],
      "name": "getVotes",
      "outputs": [
        {
          "internalType": "uint256",
          "name": "",
          "type": "uint256"
        }
      ],
      "stateMutability": "view",
      "type": "function"
    },
    {
      "inputs": [
        {
          "internalType": "address",
          "name": "account",
          "type": "address"
        },
        {
          "internalType": "uint256",
          "name": "timepoint",
          "type": "uint256"
        },
        {
          "internalType": "bytes",
          "name": "params",
          "type": "bytes"
        }
      ],
      "name": "getVotesWithParams",
      "outputs": [
        {
          "internalType": "uint256",
          "name": "",
          "type": "uint256"
        }
      ],
      "stateMutability": "view",
      "type": "function"
    },
    {
      "inputs": [
        {
          "internalType": "uint256",
          "name": "proposalId",
          "type": "uint256"
        },
        {
          "internalType": "address",
          "name": "account",
          "type": "address"
        }
      ],
      "name": "hasVoted",
      "outputs": [
        {
          "internalType": "bool",
          "name": "",
          "type": "bool"
        }
      ],
      "stateMutability": "view",
      "type": "function"
    },
    {
      "inputs": [
        {
          "internalType": "address[]",
          "name": "targets",
          "type": "address[]"
        },
        {
          "internalType": "uint256[]",
          "name": "values",
          "type": "uint256[]"
        },
        {
          "internalType": "bytes[]",
          "name": "calldatas",
          "type": "bytes[]"
        },
        {
          "internalType": "bytes32",
          "name": "descriptionHash",
          "type": "bytes32"
        }
      ],
      "name": "hashProposal",
      "outputs": [
        {
          "internalType": "uint256",
          "name": "",
          "type": "uint256"
        }
      ],
      "stateMutability": "pure",
      "type": "function"
    },
    {
      "inputs": [],
      "name": "name",
      "outputs": [
        {
          "internalType": "string",
          "name": "",
          "type": "string"
        }
      ],
      "stateMutability": "view",
      "type": "function"
    },
    {
      "inputs": [
        {
          "internalType": "address",
          "name": "owner",
          "type": "address"
        }
      ],
      "name": "nonces",
      "outputs": [
        {
          "internalType": "uint256",
          "name": "",
          "type": "uint256"
        }
      ],
      "stateMutability": "view",
      "type": "function"
    },
    {
      "inputs": [
        {
          "internalType": "address",
          "name": "",
          "type": "address"
        },
        {
          "internalType": "address",
          "name": "",
          "type": "address"
        },
        {
          "internalType": "uint256[]",
          "name": "",
          "type": "uint256[]"
        },
        {
          "internalType": "uint256[]",
          "name": "",
          "type": "uint256[]"
        },
        {
          "internalType": "bytes",
          "name": "",
          "type": "bytes"
        }
      ],
      "name": "onERC1155BatchReceived",
      "outputs": [
        {
          "internalType": "bytes4",
          "name": "",
          "type": "bytes4"
        }
      ],
      "stateMutability": "nonpayable",
      "type": "function"
    },
    {
      "inputs": [
        {
          "internalType": "address",
          "name": "",
          "type": "address"
        },
        {
          "internalType": "address",
          "name": "",
          "type": "address"
        },
        {
          "internalType": "uint256",
          "name": "",
          "type": "uint256"
        },
        {
          "internalType": "uint256",
          "name": "",
          "type": "uint256"
        },
        {
          "internalType": "bytes",
          "name": "",
          "type": "bytes"
        }
      ],
      "name": "onERC1155Received",
      "outputs": [
        {
          "internalType": "bytes4",
          "name": "",
          "type": "bytes4"
        }
      ],
      "stateMutability": "nonpayable",
      "type": "function"
    },
    {
      "inputs": [
        {
          "internalType": "address",
          "name": "",
          "type": "address"
        },
        {
          "internalType": "address",
          "name": "",
          "type": "address"
        },
        {
          "internalType": "uint256",
          "name": "",
          "type": "uint256"
        },
        {
          "internalType": "bytes",
          "name": "",
          "type": "bytes"
        }
      ],
      "name": "onERC721Received",
      "outputs": [
        {
          "internalType": "bytes4",
          "name": "",
          "type": "bytes4"
        }
      ],
      "stateMutability": "nonpayable",
      "type": "function"
    },
    {
      "inputs": [
        {
          "internalType": "uint256",
          "name": "proposalId",
          "type": "uint256"
        }
      ],
      "name": "proposalDeadline",
      "outputs": [
        {
          "internalType": "uint256",
          "name": "",
          "type": "uint256"
        }
      ],
      "stateMutability": "view",
      "type": "function"
    },
    {
      "inputs": [
        {
          "internalType": "uint256",
          "name": "proposalId",
          "type": "uint256"
        }
      ],
      "name": "proposalEta",
      "outputs": [
        {
          "internalType": "uint256",
          "name": "",
          "type": "uint256"
        }
      ],
      "stateMutability": "view",
      "type": "function"
    },
    {
      "inputs": [
        {
          "internalType": "uint256",
          "name": "proposalId",
          "type": "uint256"
        }
      ],
      "name": "proposalNeedsQueuing",
      "outputs": [
        {
          "internalType": "bool",
          "name": "",
          "type": "bool"
        }
      ],
      "stateMutability": "view",
      "type": "function"
    },
    {
      "inputs": [
        {
          "internalType": "uint256",
          "name": "proposalId",
          "type": "uint256"
        }
      ],
      "name": "proposalProposer",
      "outputs": [
        {
          "internalType": "address",
          "name": "",
          "type": "address"
        }
      ],
      "stateMutability": "view",
      "type": "function"
    },
    {
      "inputs": [
        {
          "internalType": "uint256",
          "name": "proposalId",
          "type": "uint256"
        }
      ],
      "name": "proposalSnapshot",
      "outputs": [
        {
          "internalType": "uint256",
          "name": "",
          "type": "uint256"
        }
      ],
      "stateMutability": "view",
      "type": "function"
    },
    {
      "inputs": [],
      "name": "proposalThreshold",
      "outputs": [
        {
          "internalType": "uint256",
          "name": "",
          "type": "uint256"
        }
      ],
      "stateMutability": "view",
      "type": "function"
    },
    {
      "inputs": [
        {
          "internalType": "uint256",
          "name": "proposalId",
          "type": "uint256"
        }
      ],
      "name": "proposalVotes",
      "outputs": [
        {
          "internalType": "uint256",
          "name": "againstVotes",
          "type": "uint256"
        },
        {
          "internalType": "uint256",
          "name": "forVotes",
          "type": "uint256"
        },
        {
          "internalType": "uint256",
          "name": "abstainVotes",
          "type": "uint256"
        }
      ],
      "stateMutability": "view",
      "type": "function"
    },
    {
      "inputs": [
        {
          "internalType": "address[]",
          "name": "targets",
          "type": "address[]"
        },
        {
          "internalType": "uint256[]",
          "name": "values",
          "type": "uint256[]"
        },
        {
          "internalType": "bytes[]",
          "name": "calldatas",
          "type": "bytes[]"
        },
        {
          "internalType": "string",
          "name": "description",
          "type": "string"
        }
      ],
      "name": "propose",
      "outputs": [
        {
          "internalType": "uint256",
          "name": "",
          "type": "uint256"
        }
      ],
      "stateMutability": "nonpayable",
      "type": "function"
    },
    {
      "inputs": [
        {
          "internalType": "address[]",
          "name": "targets",
          "type": "address[]"
        },
        {
          "internalType": "uint256[]",
          "name": "values",
          "type": "uint256[]"
        },
        {
          "internalType": "bytes[]",
          "name": "calldatas",
          "type": "bytes[]"
        },
        {
          "internalType": "bytes32",
          "name": "descriptionHash",
          "type": "bytes32"
        }
      ],
      "name": "queue",
      "outputs": [
        {
          "internalType": "uint256",
          "name": "",
          "type": "uint256"
        }
      ],
      "stateMutability": "nonpayable",
      "type": "function"
    },
    {
      "inputs": [
        {
          "internalType": "uint256",
          "name": "timepoint",
          "type": "uint256"
        }
      ],
      "name": "quorum",
      "outputs": [
        {
          "internalType": "uint256",
          "name": "",
          "type": "uint256"
        }
      ],
      "stateMutability": "view",
      "type": "function"
    },
    {
      "inputs": [],
      "name": "quorumDenominator",
      "outputs": [
        {
          "internalType": "uint256",
          "name": "",
          "type": "uint256"
        }
      ],
      "stateMutability": "view",
      "type": "function"
    },
    {
      "inputs": [
        {
          "internalType": "uint256",
          "name": "timepoint",
          "type": "uint256"
        }
      ],
      "name": "quorumNumerator",
      "outputs": [
        {
          "internalType": "uint256",
          "name": "",
          "type": "uint256"
        }
      ],
      "stateMutability": "view",
      "type": "function"
    },
    {
      "inputs": [],
      "name": "quorumNumerator",
      "outputs": [
        {
          "internalType": "uint256",
          "name": "",
          "type": "uint256"
        }
      ],
      "stateMutability": "view",
      "type": "function"
    },
    {
      "inputs": [
        {
          "internalType": "address",
          "name": "target",
          "type": "address"
        },
        {
          "internalType": "uint256",
          "name": "value",
          "type": "uint256"
        },
        {
          "internalType": "bytes",
          "name": "data",
          "type": "bytes"
        }
      ],
      "name": "relay",
      "outputs": [],
      "stateMutability": "payable",
      "type": "function"
    },
    {
      "inputs": [
        {
          "internalType": "uint256",
          "name": "newProposalThreshold",
          "type": "uint256"
        }
      ],
      "name": "setProposalThreshold",
      "outputs": [],
      "stateMutability": "nonpayable",
      "type": "function"
    },
    {
      "inputs": [
        {
          "internalType": "uint48",
          "name": "newVotingDelay",
          "type": "uint48"
        }
      ],
      "name": "setVotingDelay",
      "outputs": [],
      "stateMutability": "nonpayable",
      "type": "function"
    },
    {
      "inputs": [
        {
          "internalType": "uint32",
          "name": "newVotingPeriod",
          "type": "uint32"
        }
      ],
      "name": "setVotingPeriod",
      "outputs": [],
      "stateMutability": "nonpayable",
      "type": "function"
    },
    {
      "inputs": [
        {
          "internalType": "uint256",
          "name": "proposalId",
          "type": "uint256"
        }
      ],
      "name": "state",
      "outputs": [
        {
          "internalType": "enum IGovernor.ProposalState",
          "name": "",
          "type": "uint8"
        }
      ],
      "stateMutability": "view",
      "type": "function"
    },
    {
      "inputs": [
        {
          "internalType": "bytes4",
          "name": "interfaceId",
          "type": "bytes4"
        }
      ],
      "name": "supportsInterface",
      "outputs": [
        {
          "internalType": "bool",
          "name": "",
          "type": "bool"
        }
      ],
      "stateMutability": "view",
      "type": "function"
    },
    {
      "inputs": [],
      "name": "timelock",
      "outputs": [
        {
          "internalType": "address",
          "name": "",
          "type": "address"
        }
      ],
      "stateMutability": "view",
      "type": "function"
    },
    {
      "inputs": [],
      "name": "token",
      "outputs": [
        {
          "internalType": "contract IERC5805",
          "name": "",
          "type": "address"
        }
      ],
      "stateMutability": "view",
      "type": "function"
    },
    {
      "inputs": [
        {
          "internalType": "uint256",
          "name": "newQuorumNumerator",
          "type": "uint256"
        }
      ],
      "name": "updateQuorumNumerator",
      "outputs": [],
      "stateMutability": "nonpayable",
      "type": "function"
    },
    {
      "inputs": [
        {
          "internalType": "contract TimelockController",
          "name": "newTimelock",
          "type": "address"
        }
      ],
      "name": "updateTimelock",
      "outputs": [],
      "stateMutability": "nonpayable",
      "type": "function"
    },
    {
      "inputs": [],
      "name": "version",
      "outputs": [
        {
          "internalType": "string",
          "name": "",
          "type": "string"
        }
      ],
      "stateMutability": "view",
      "type": "function"
    },
    {
      "inputs": [],
      "name": "votingDelay",
      "outputs": [
        {
          "internalType": "uint256",
          "name": "",
          "type": "uint256"
        }
      ],
      "stateMutability": "view",
      "type": "function"
    },
    {
      "inputs": [],
      "name": "votingPeriod",
      "outputs": [
        {
          "internalType": "uint256",
          "name": "",
          "type": "uint256"
        }
      ],
      "stateMutability": "view",
      "type": "function"
    },
    {
      "stateMutability": "payable",
      "type": "receive"
    }
  ],
  "bytecode": "0x610180604052348015610010575f5ffd5b50604051614daa380380614daa83398101604081905261002f91610736565b83818685855f6040518060400160405280601081526020016f11dbdd995c9b9bdc90dbdb9d1c9858dd60821b8152508061006d61017360201b60201c565b610077825f61018e565b6101205261008681600161018e565b61014052815160208084019190912060e052815190820120610100524660a05261011260e05161010051604080517f8b73c3c69bb8fe3d512ecc4cf759cc79239f7b179b0ffacaa9a75d522b39400f60208201529081019290925260608201524660808201523060a08201525f9060c00160405160208183030381529060405280519060200120905090565b60805250503060c05260036101278282610839565b506101339050836101c0565b61013c82610226565b610145816102ca565b5050506001600160a01b03166101605261015e8161030b565b50610168816103a0565b505050505050610983565b6040805180820190915260018152603160f81b602082015290565b5f6020835110156101a9576101a283610409565b90506101ba565b816101b48482610839565b5060ff90505b92915050565b6008546040805165ffffffffffff928316815291831660208301527fc565b045403dc03c2eea82b81a0465edad9e2e7fc4d97e11421c209da93d7a93910160405180910390a16008805465ffffffffffff191665ffffffffffff92909216919091179055565b8063ffffffff165f036102535760405163f1cfbf0560e01b81525f60048201526024015b60405180910390fd5b6008546040805163ffffffff66010000000000009093048316815291831660208301527f7e3f7f0708a84de9203036abaa450dccc85ad5ff52f78c170f3edb55cf5e8828910160405180910390a16008805463ffffffff90921666010000000000000263ffffffff60301b19909216919091179055565b60075460408051918252602082018390527fccb45da8d5717e6c4544694297c4ba5cf151d455c9bb0ed4fc7a38411bc05461910160405180910390a1600755565b6064808211156103385760405163243e544560e01b8152600481018390526024810182905260440161024a565b5f610341610446565b905061036061034e61045f565b610357856104d9565b600a9190610510565b505060408051828152602081018590527f0553476bf02ef2726e8ce5ced78d63e26e602e4a2257b1f559418e24b4633997910160405180910390a1505050565b600b54604080516001600160a01b03928316815291831660208301527f08f74ea46ef7894f65eabfb5e6e695de773a000b47c529ab559178069b226401910160405180910390a1600b80546001600160a01b0319166001600160a01b0392909216919091179055565b5f5f829050601f81511115610433578260405163305a27a960e01b815260040161024a91906108f3565b805161043e82610928565b179392505050565b5f610451600a61052a565b6001600160d01b0316905090565b5f61046a6101605190565b6001600160a01b03166391ddadf46040518163ffffffff1660e01b8152600401602060405180830381865afa9250505080156104c3575060408051601f3d908101601f191682019092526104c09181019061094b565b60015b6104d4576104cf610572565b905090565b919050565b5f6001600160d01b0382111561050c576040516306dfcc6560e41b815260d060048201526024810183905260440161024a565b5090565b5f8061051d85858561057c565b915091505b935093915050565b80545f9080156105695761055083610543600184610964565b5f91825260209091200190565b54660100000000000090046001600160d01b031661056b565b5f5b9392505050565b5f6104cf436106d8565b82545f908190801561067b575f61059887610543600185610964565b805490915065ffffffffffff80821691660100000000000090046001600160d01b03169088168211156105de57604051632520601d60e01b815260040160405180910390fd5b8765ffffffffffff168265ffffffffffff160361061a57825465ffffffffffff1666010000000000006001600160d01b0389160217835561066d565b6040805180820190915265ffffffffffff808a1682526001600160d01b03808a1660208085019182528d54600181018f555f8f815291909120945191519092166601000000000000029216919091179101555b945085935061052292505050565b50506040805180820190915265ffffffffffff80851682526001600160d01b0380851660208085019182528854600181018a555f8a8152918220955192519093166601000000000000029190931617920191909155905081610522565b5f65ffffffffffff82111561050c576040516306dfcc6560e41b8152603060048201526024810183905260440161024a565b6001600160a01b038116811461071e575f5ffd5b50565b805165ffffffffffff811681146104d4575f5ffd5b5f5f5f5f5f60a0868803121561074a575f5ffd5b85516107558161070a565b60208701519095506107668161070a565b935061077460408701610721565b9250606086015163ffffffff8116811461078c575f5ffd5b80925050608086015190509295509295909350565b634e487b7160e01b5f52604160045260245ffd5b600181811c908216806107c957607f821691505b6020821081036107e757634e487b7160e01b5f52602260045260245ffd5b50919050565b601f82111561083457805f5260205f20601f840160051c810160208510156108125750805b601f840160051c820191505b81811015610831575f815560010161081e565b50505b505050565b81516001600160401b03811115610852576108526107a1565b6108668161086084546107b5565b846107ed565b6020601f821160018114610898575f83156108815750848201515b5f19600385901b1c1916600184901b178455610831565b5f84815260208120601f198516915b828110156108c757878501518255602094850194600190920191016108a7565b50848210156108e457868401515f19600387901b60f8161c191681555b50505050600190811b01905550565b602081525f82518060208401528060208501604085015e5f604082850101526040601f19601f83011684010191505092915050565b805160208083015191908110156107e7575f1960209190910360031b1b16919050565b5f6020828403121561095b575f5ffd5b61056b82610721565b818103818111156101ba57634e487b7160e01b5f52601160045260245ffd5b60805160a05160c05160e051610100516101205161014051610160516143b06109fa5f395f81816109c901528181610e1f015281816111ec015281816114b10152611eba01525f611dfe01525f611dd201525f612df001525f612dc801525f612d2301525f612d4d01525f612d7701526143b05ff3fe6080604052600436106102a8575f3560e01c80637ecebe001161016f578063bc197c81116100d8578063deaaa7cc11610092578063ece40cc11161006d578063ece40cc11461095e578063f23a6e611461097d578063f8ce560a1461099c578063fc0c546a146109bb575f5ffd5b8063deaaa7cc146108ed578063e540d01d14610920578063eb9019d41461093f575f5ffd5b8063bc197c811461081b578063c01f9e371461083a578063c28bc2fa14610859578063c59057e41461086c578063d33219b41461088b578063dd4e2ba5146108a8575f5ffd5b8063a7713a7011610129578063a7713a7014610760578063a890c91014610774578063a8f8a66814610793578063a9a95294146107b2578063ab58fb8e146107d1578063b58131b014610807575f5ffd5b80637ecebe001461068957806384b0196e146106bd5780638ff262e3146106e457806391ddadf41461070357806397c3d3341461072e5780639a802a6d14610741575f5ffd5b806343859632116102115780635b8d0e0d116101cb5780635b8d0e0d146105cf5780635f398a14146105ee57806360c4247f1461060d578063790518871461062c5780637b3c71d31461064b5780637d5e81e21461066a575f5ffd5b806343859632146104d2578063452115d61461051a5780634bf5d7e914610539578063544ffc9c1461054d57806354fd4d501461058757806356781388146105b0575f5ffd5b8063160cbed711610262578063160cbed7146104065780632656227d146104255780632d63f693146104385780632fe3e261146104575780633932abb11461048a5780633e4f49e6146104a6575f5ffd5b806301ffc9a7146102e357806302a251a31461031757806306f3f9e61461034257806306fdde0314610361578063143489d014610382578063150b7a02146103ce575f5ffd5b366102df57306102b66109ed565b6001600160a01b0316146102dd57604051637485328f60e11b815260040160405180910390fd5b005b5f5ffd5b3480156102ee575f5ffd5b506103026102fd366004613395565b610a05565b60405190151581526020015b60405180910390f35b348015610322575f5ffd5b50600854600160301b900463ffffffff165b60405190815260200161030e565b34801561034d575f5ffd5b506102dd61035c3660046133bc565b610a71565b34801561036c575f5ffd5b50610375610a85565b60405161030e9190613401565b34801561038d575f5ffd5b506103b661039c3660046133bc565b5f908152600460205260409020546001600160a01b031690565b6040516001600160a01b03909116815260200161030e565b3480156103d9575f5ffd5b506103ed6103e83660046134ea565b610b15565b6040516001600160e01b0319909116815260200161030e565b348015610411575f5ffd5b506103346104203660046136b0565b610b57565b6103346104333660046136b0565b610c23565b348015610443575f5ffd5b506103346104523660046133bc565b610d8b565b348015610462575f5ffd5b506103347f3e83946653575f9a39005e1545185629e92736b7528ab20ca3816f315424a81181565b348015610495575f5ffd5b5060085465ffffffffffff16610334565b3480156104b1575f5ffd5b506104c56104c03660046133bc565b610dab565b60405161030e9190613777565b3480156104dd575f5ffd5b506103026104ec366004613785565b5f8281526009602090815260408083206001600160a01b038516845260030190915290205460ff1692915050565b348015610525575f5ffd5b506103346105343660046136b0565b610db5565b348015610544575f5ffd5b50610375610e1b565b348015610558575f5ffd5b5061056c6105673660046133bc565b610edb565b6040805193845260208401929092529082015260600161030e565b348015610592575f5ffd5b506040805180820190915260018152603160f81b6020820152610375565b3480156105bb575f5ffd5b506103346105ca3660046137c3565b610f00565b3480156105da575f5ffd5b506103346105e9366004613831565b610f27565b3480156105f9575f5ffd5b506103346106083660046138ed565b610fe4565b348015610618575f5ffd5b506103346106273660046133bc565b61102c565b348015610637575f5ffd5b506102dd610646366004613981565b611038565b348015610656575f5ffd5b5061033461066536600461399c565b611049565b348015610675575f5ffd5b506103346106843660046139f1565b611099565b348015610694575f5ffd5b506103346106a3366004613aad565b6001600160a01b03165f9081526002602052604090205490565b3480156106c8575f5ffd5b506106d161114f565b60405161030e9796959493929190613b02565b3480156106ef575f5ffd5b506103346106fe366004613b71565b611191565b34801561070e575f5ffd5b506107176111e9565b60405165ffffffffffff909116815260200161030e565b348015610739575f5ffd5b506064610334565b34801561074c575f5ffd5b5061033461075b366004613bbe565b611270565b34801561076b575f5ffd5b50610334611286565b34801561077f575f5ffd5b506102dd61078e366004613aad565b61129f565b34801561079e575f5ffd5b506103346107ad3660046136b0565b6112b0565b3480156107bd575f5ffd5b506103026107cc3660046133bc565b6112bd565b3480156107dc575f5ffd5b506103346107eb3660046133bc565b5f9081526004602052604090206001015465ffffffffffff1690565b348015610812575f5ffd5b506103346112c5565b348015610826575f5ffd5b506103ed610835366004613c12565b6112cf565b348015610845575f5ffd5b506103346108543660046133bc565b611312565b6102dd610867366004613ca9565b611354565b348015610877575f5ffd5b506103346108863660046136b0565b6113d0565b348015610896575f5ffd5b50600b546001600160a01b03166103b6565b3480156108b3575f5ffd5b506040805180820190915260208082527f737570706f72743d627261766f2671756f72756d3d666f722c6162737461696e90820152610375565b3480156108f8575f5ffd5b506103347ff2aad550cf55f045cb27e9c559f9889fdfb6e6cdaa032301d6ea397784ae51d781565b34801561092b575f5ffd5b506102dd61093a366004613ce8565b611409565b34801561094a575f5ffd5b50610334610959366004613d0b565b61141a565b348015610969575f5ffd5b506102dd6109783660046133bc565b611439565b348015610988575f5ffd5b506103ed610997366004613d35565b61144a565b3480156109a7575f5ffd5b506103346109b63660046133bc565b61148d565b3480156109c6575f5ffd5b507f00000000000000000000000000000000000000000000000000000000000000006103b6565b5f610a00600b546001600160a01b031690565b905090565b5f6001600160e01b031982166366defe7760e11b1480610a3557506001600160e01b031982166332a2ad4360e11b145b80610a5057506001600160e01b03198216630271189760e51b145b80610a6b57506301ffc9a760e01b6001600160e01b03198316145b92915050565b610a7961152a565b610a82816115a3565b50565b606060038054610a9490613d8c565b80601f0160208091040260200160405190810160405280929190818152602001828054610ac090613d8c565b8015610b0b5780601f10610ae257610100808354040283529160200191610b0b565b820191905f5260205f20905b815481529060010190602001808311610aee57829003601f168201915b5050505050905090565b5f30610b1f6109ed565b6001600160a01b031614610b4657604051637485328f60e11b815260040160405180910390fd5b50630a85bd0160e11b949350505050565b5f5f610b65868686866112b0565b9050610b7a81610b756004611638565b61165a565b505f610b898288888888611697565b905065ffffffffffff811615610c00575f82815260046020908152604091829020600101805465ffffffffffff191665ffffffffffff85169081179091558251858152918201527f9a2e42fd6722813d69113e7d0079d3d940171428df7373df9c7f7617cfda2892910160405180910390a1610c19565b604051634844252360e11b815260040160405180910390fd5b5095945050505050565b5f5f610c31868686866112b0565b9050610c5181610c416005611638565b610c4b6004611638565b1761165a565b505f818152600460205260409020805460ff60f01b1916600160f01b17905530610c796109ed565b6001600160a01b031614610d02575f5b8651811015610d0057306001600160a01b0316878281518110610cae57610cae613dc4565b60200260200101516001600160a01b031603610cf857610cf8858281518110610cd957610cd9613dc4565b60200260200101518051906020012060056116a590919063ffffffff16565b600101610c89565b505b610d0f8187878787611706565b30610d186109ed565b6001600160a01b031614158015610d4457506005546001600160801b03808216600160801b9092041614155b15610d4e575f6005555b6040518181527f712ae1383f79ac853f8d882153778e0260ef8f03b504e2866e0593e04d2b291f906020015b60405180910390a195945050505050565b5f90815260046020526040902054600160a01b900465ffffffffffff1690565b5f610a6b8261171a565b5f5f610dc3868686866112b0565b905033610dd08282611853565b610e0457604051638fe5d8a960e01b8152600481018390526001600160a01b03821660248201526044015b60405180910390fd5b610e1087878787611898565b979650505050505050565b60607f00000000000000000000000000000000000000000000000000000000000000006001600160a01b0316634bf5d7e96040518163ffffffff1660e01b81526004015f60405180830381865afa925050508015610e9a57506040513d5f823e601f3d908101601f19168201604052610e979190810190613dd8565b60015b610ed6575060408051808201909152601d81527f6d6f64653d626c6f636b6e756d6265722666726f6d3d64656661756c74000000602082015290565b919050565b5f818152600960205260409020805460018201546002909201549091905b9193909250565b5f80339050610f1f84828560405180602001604052805f8152506118a5565b949350505050565b5f610f6d88888888888080601f0160208091040260200160405190810160405280939291908181526020018383808284375f920191909152508a92508991506118c69050565b610f95576040516394ab6c0760e01b81526001600160a01b0387166004820152602401610dfb565b610fd888878988888080601f0160208091040260200160405190810160405280939291908181526020018383808284375f920191909152508a9250611993915050565b98975050505050505050565b5f80339050610e1087828888888080601f0160208091040260200160405190810160405280939291908181526020018383808284375f920191909152508a9250611993915050565b5f610a6b600a83611a71565b61104061152a565b610a8281611abe565b5f8033905061108f86828787878080601f0160208091040260200160405190810160405280939291908181526020018383808284375f920191909152506118a592505050565b9695505050505050565b5f336110a58184611b24565b6110cd5760405163d9b3955760e01b81526001600160a01b0382166004820152602401610dfb565b5f6110d66112c5565b90508015611142575f6111048360016110ed6111e9565b6110f79190613e60565b65ffffffffffff1661141a565b90508181101561114057604051636121770b60e11b81526001600160a01b03841660048201526024810182905260448101839052606401610dfb565b505b610e108787878786611ba8565b5f6060805f5f5f6060611160611dcb565b611168611df7565b604080515f80825260208201909252600f60f81b9b939a50919850469750309650945092509050565b5f61119e85858585611e24565b6111c6576040516394ab6c0760e01b81526001600160a01b0384166004820152602401610dfb565b6111e085848660405180602001604052805f8152506118a5565b95945050505050565b5f7f00000000000000000000000000000000000000000000000000000000000000006001600160a01b03166391ddadf46040518163ffffffff1660e01b8152600401602060405180830381865afa925050508015611264575060408051601f3d908101601f1916820190925261126191810190613e7e565b60015b610ed657610a00611ead565b5f61127c848484611eb7565b90505b9392505050565b5f611291600a611f4a565b6001600160d01b0316905090565b6112a761152a565b610a8281611f8e565b5f6111e0858585856113d0565b5f6001610a6b565b5f610a0060075490565b5f306112d96109ed565b6001600160a01b03161461130057604051637485328f60e11b815260040160405180910390fd5b5063bc197c8160e01b95945050505050565b5f8181526004602052604081205461134690600160d01b810463ffffffff1690600160a01b900465ffffffffffff16613e99565b65ffffffffffff1692915050565b61135c61152a565b5f5f856001600160a01b0316858585604051611379929190613eb7565b5f6040518083038185875af1925050503d805f81146113b3576040519150601f19603f3d011682016040523d82523d5f602084013e6113b8565b606091505b50915091506113c78282611ff7565b50505050505050565b5f848484846040516020016113e89493929190613f59565b60408051601f19818403018152919052805160209091012095945050505050565b61141161152a565b610a8281612013565b5f61127f838361143460408051602081019091525f815290565b611eb7565b61144161152a565b610a82816120af565b5f306114546109ed565b6001600160a01b03161461147b57604051637485328f60e11b815260040160405180910390fd5b5063f23a6e6160e01b95945050505050565b604051632394e7a360e21b8152600481018290525f90610a6b906001600160a01b037f00000000000000000000000000000000000000000000000000000000000000001690638e539e8c90602401602060405180830381865afa1580156114f6573d5f5f3e3d5ffd5b505050506040513d601f19601f8201168201806040525081019061151a9190613fa3565b6115238461102c565b60646120f0565b336115336109ed565b6001600160a01b03161461155c576040516347096e4760e01b8152336004820152602401610dfb565b306115656109ed565b6001600160a01b0316146115a1575f8036604051611584929190613eb7565b604051809103902090505b8061159a60056121a0565b0361158f57505b565b6064808211156115d05760405163243e544560e01b81526004810183905260248101829052604401610dfb565b5f6115d9611286565b90506115f86115e66111e9565b6115ef8561220d565b600a9190612244565b505060408051828152602081018590527f0553476bf02ef2726e8ce5ced78d63e26e602e4a2257b1f559418e24b4633997910160405180910390a1505050565b5f81600781111561164b5761164b613743565b600160ff919091161b92915050565b5f5f61166584610dab565b90505f8361167283611638565b160361127f578381846040516331b75e4d60e01b8152600401610dfb93929190613fba565b5f61108f868686868661225e565b81546001600160801b03600160801b8204811691811660018301909116036116d1576116d160416123ef565b6001600160801b038082165f90815260018086016020526040909120939093558354919092018216600160801b029116179055565b6117138585858585612400565b5050505050565b5f5f61172583612490565b9050600581600781111561173b5761173b613743565b146117465792915050565b5f838152600c60205260409081902054600b549151632c258a9f60e11b81526004810182905290916001600160a01b03169063584b153e90602401602060405180830381865afa15801561179c573d5f5f3e3d5ffd5b505050506040513d601f19601f820116820180604052508101906117c09190613fdc565b156117cf575060059392505050565b600b54604051632ab0f52960e01b8152600481018390526001600160a01b0390911690632ab0f52990602401602060405180830381865afa158015611816573d5f5f3e3d5ffd5b505050506040513d601f19601f8201168201806040525081019061183a9190613fdc565b15611849575060079392505050565b5060029392505050565b5f8061185e84610dab565b600781111561186f5761186f613743565b14801561127f5750505f91825260046020526040909120546001600160a01b0391821691161490565b5f6111e0858585856125c1565b5f6111e0858585856118c160408051602081019091525f815290565b611993565b5f610e108561198d7f3e83946653575f9a39005e1545185629e92736b7528ab20ca3816f315424a8118a8a8a6119188c6001600160a01b03165f90815260026020526040902080546001810190915590565b8b516020808e01919091208c518d83012060405161197298979695949301968752602087019590955260ff9390931660408601526001600160a01b03919091166060850152608084015260a083015260c082015260e00190565b60405160208183030381529060405280519060200120612658565b84612684565b5f6119a286610b756001611638565b505f6119b7866119b189610d8b565b85611eb7565b90505f6119c788888885886126f4565b905083515f03611a1d57866001600160a01b03167fb8e138887d0aa13bab447e82de9d5c1777041ecd21ca36ba824ff1e6c07ddda489888489604051611a109493929190613ffb565b60405180910390a2610e10565b866001600160a01b03167fe2babfbac5889a709b63bb7f598b324e08bc5a4fb9ec647fb3cbc9ec07eb87128988848989604051611a5e959493929190614022565b60405180910390a2979650505050505050565b5f5f5f611a7d856127f0565b9250925050838265ffffffffffff161115611aaa57611aa5611a9e85612848565b869061287a565b611aac565b805b6001600160d01b031695945050505050565b6008546040805165ffffffffffff928316815291831660208301527fc565b045403dc03c2eea82b81a0465edad9e2e7fc4d97e11421c209da93d7a93910160405180910390a16008805465ffffffffffff191665ffffffffffff92909216919091179055565b80515f906034811015611b3b576001915050610a6b565b60131981840101516001600160b01b03198116692370726f706f7365723d60b01b14611b6c57600192505050610a6b565b5f5f611b7c86602a86038661291c565b91509150811580610e105750866001600160a01b0316816001600160a01b031614979650505050505050565b5f611bbc86868686805190602001206112b0565b905084518651141580611bd157508351865114155b80611bdb57508551155b15611c1057855184518651604051630447b05d60e41b8152600481019390935260248301919091526044820152606401610dfb565b5f81815260046020526040902054600160a01b900465ffffffffffff1615611c595780611c3c82610dab565b6040516331b75e4d60e01b8152610dfb9291905f90600401613fba565b5f611c6b60085465ffffffffffff1690565b611c736111e9565b65ffffffffffff16611c85919061405b565b90505f611c9f60085463ffffffff600160301b9091041690565b5f84815260046020526040902080546001600160a01b0319166001600160a01b038716178155909150611cd183612848565b815465ffffffffffff91909116600160a01b0265ffffffffffff60a01b19909116178155611cfe826129c5565b815463ffffffff91909116600160d01b0263ffffffff60d01b1990911617815588517f7d84a6263ae0d98d3329bd7b46bb4e8d6f98cd35a7adb45c274c8b7fd5ebd5e090859087908c908c906001600160401b03811115611d6157611d61613427565b604051908082528060200260200182016040528015611d9457816020015b6060815260200190600190039081611d7f5790505b508c89611da18a8261405b565b8e604051611db79998979695949392919061406e565b60405180910390a150505095945050505050565b6060610a007f00000000000000000000000000000000000000000000000000000000000000005f6129f5565b6060610a007f000000000000000000000000000000000000000000000000000000000000000060016129f5565b5f6111e08361198d7ff2aad550cf55f045cb27e9c559f9889fdfb6e6cdaa032301d6ea397784ae51d7888888611e768a6001600160a01b03165f90815260026020526040902080546001810190915590565b60408051602081019690965285019390935260ff90911660608401526001600160a01b0316608083015260a082015260c001611972565b5f610a0043612848565b5f7f0000000000000000000000000000000000000000000000000000000000000000604051630748d63560e31b81526001600160a01b038681166004830152602482018690529190911690633a46b1a890604401602060405180830381865afa158015611f26573d5f5f3e3d5ffd5b505050506040513d601f19601f8201168201806040525081019061127c9190613fa3565b80545f908015611f8657611f7083611f63600184614149565b5f91825260209091200190565b54600160301b90046001600160d01b031661127f565b5f9392505050565b600b54604080516001600160a01b03928316815291831660208301527f08f74ea46ef7894f65eabfb5e6e695de773a000b47c529ab559178069b226401910160405180910390a1600b80546001600160a01b0319166001600160a01b0392909216919091179055565b60608261200c5761200782612a9e565b610a6b565b5080610a6b565b8063ffffffff165f0361203b5760405163f1cfbf0560e01b81525f6004820152602401610dfb565b6008546040805163ffffffff600160301b9093048316815291831660208301527f7e3f7f0708a84de9203036abaa450dccc85ad5ff52f78c170f3edb55cf5e8828910160405180910390a16008805463ffffffff909216600160301b0269ffffffff00000000000019909216919091179055565b60075460408051918252602082018390527fccb45da8d5717e6c4544694297c4ba5cf151d455c9bb0ed4fc7a38411bc05461910160405180910390a1600755565b5f5f5f6120fd8686612ac6565b91509150815f03612121578381816121175761211761415c565b049250505061127f565b8184116121385761213860038515026011186123ef565b5f848688095f868103871696879004966002600389028118808a02820302808a02820302808a02820302808a02820302808a02820302808a02909103029181900381900460010185841190960395909502919093039390930492909217029150509392505050565b80545f906001600160801b0380821691600160801b90041681036121c8576121c860316123ef565b6001600160801b038181165f908152600185810160205260408220805492905585546fffffffffffffffffffffffffffffffff19169301909116919091179092555090565b5f6001600160d01b03821115612240576040516306dfcc6560e41b815260d0600482015260248101839052604401610dfb565b5090565b5f80612251858585612ae2565b915091505b935093915050565b5f5f600b5f9054906101000a90046001600160a01b03166001600160a01b031663f27a0c926040518163ffffffff1660e01b8152600401602060405180830381865afa1580156122b0573d5f5f3e3d5ffd5b505050506040513d601f19601f820116820180604052508101906122d49190613fa3565b90505f3060601b6bffffffffffffffffffffffff19168418600b5460405163b1c5f42760e01b81529192506001600160a01b03169063b1c5f42790612325908a908a908a905f908890600401614170565b602060405180830381865afa158015612340573d5f5f3e3d5ffd5b505050506040513d601f19601f820116820180604052508101906123649190613fa3565b5f898152600c602052604080822092909255600b5491516308f2a0bb60e41b81526001600160a01b0390921691638f2a0bb0916123ae918b918b918b919088908a906004016141bd565b5f604051808303815f87803b1580156123c5575f5ffd5b505af11580156123d7573d5f5f3e3d5ffd5b50505050610fd882426123ea919061405b565b612848565b634e487b715f52806020526024601cfd5b600b546001600160a01b031663e38335e5348686865f3060601b6bffffffffffffffffffffffff191688186040518763ffffffff1660e01b815260040161244b959493929190614170565b5f604051808303818588803b158015612462575f5ffd5b505af1158015612474573d5f5f3e3d5ffd5b5050505f9687525050600c602052505060408320929092555050565b5f818152600460205260408120805460ff600160f01b8204811691600160f81b90041681156124c457506007949350505050565b80156124d557506002949350505050565b5f6124df86610d8b565b9050805f0361250457604051636ad0607560e01b815260048101879052602401610dfb565b5f61250d6111e9565b65ffffffffffff16905080821061252a57505f9695505050505050565b5f61253488611312565b905081811061254b57506001979650505050505050565b61255488612c32565b158061257357505f888152600960205260409020805460019091015411155b1561258657506003979650505050505050565b5f8881526004602052604090206001015465ffffffffffff165f036125b357506004979650505050505050565b506005979650505050505050565b5f5f6125cf86868686612c68565b5f818152600c60205260409020549091508015610c1957600b5460405163c4d252f560e01b8152600481018390526001600160a01b039091169063c4d252f5906024015f604051808303815f87803b158015612629575f5ffd5b505af115801561263b573d5f5f3e3d5ffd5b5050505f838152600c602052604081205550509050949350505050565b5f610a6b612664612d17565b8360405161190160f01b8152600281019290925260228201526042902090565b5f836001600160a01b03163b5f036126e2575f5f6126a28585612e40565b5090925090505f8160038111156126bb576126bb613743565b1480156126d95750856001600160a01b0316826001600160a01b0316145b9250505061127f565b6126ed848484612e89565b905061127f565b5f8581526009602090815260408083206001600160a01b03881684526003810190925282205460ff1615612746576040516371c6af4960e01b81526001600160a01b0387166004820152602401610dfb565b6001600160a01b0386165f9081526003820160205260409020805460ff1916600117905560ff851661278f5783815f015f828254612784919061405b565b909155506127e59050565b5f1960ff8616016127ad5783816001015f828254612784919061405b565b60011960ff8616016127cc5783816002015f828254612784919061405b565b6040516303599be160e11b815260040160405180910390fd5b509195945050505050565b80545f908190819080820361280e575f5f5f93509350935050610ef9565b5f61281e86611f63600185614149565b546001955065ffffffffffff81169450600160301b90046001600160d01b03169250610ef9915050565b5f65ffffffffffff821115612240576040516306dfcc6560e41b81526030600482015260248101839052604401610dfb565b81545f90818160058111156128d6575f61289384612f5f565b61289d9085614149565b5f8881526020902090915081015465ffffffffffff90811690871610156128c6578091506128d4565b6128d181600161405b565b92505b505b5f6128e3878785856130b7565b90508015612910576128fa87611f63600184614149565b54600160301b90046001600160d01b0316610e10565b505f9695505050505050565b5f5f845183118061292c57508284115b1561293b57505f905080612256565b5f61294785600161405b565b8411801561296f575061060f60f31b6129638787016020015190565b6001600160f01b031916145b90505f61297f8215156002614214565b61298a90602861405b565b9050806129978787614149565b036129b8575f5f6129a9898989613116565b90965094506122569350505050565b5f5f935093505050612256565b5f63ffffffff821115612240576040516306dfcc6560e41b81526020600482015260248101839052604401610dfb565b606060ff8314612a0f57612a08836131d7565b9050610a6b565b818054612a1b90613d8c565b80601f0160208091040260200160405190810160405280929190818152602001828054612a4790613d8c565b8015612a925780601f10612a6957610100808354040283529160200191612a92565b820191905f5260205f20905b815481529060010190602001808311612a7557829003601f168201915b50505050509050610a6b565b805115612aad57805160208201fd5b60405163d6bda27560e01b815260040160405180910390fd5b5f805f1983850993909202808410938190039390930393915050565b82545f9081908015612bd8575f612afe87611f63600185614149565b805490915065ffffffffffff80821691600160301b90046001600160d01b0316908816821115612b4157604051632520601d60e01b815260040160405180910390fd5b8765ffffffffffff168265ffffffffffff1603612b7a57825465ffffffffffff16600160301b6001600160d01b03891602178355612bca565b6040805180820190915265ffffffffffff808a1682526001600160d01b03808a1660208085019182528d54600181018f555f8f81529190912094519151909216600160301b029216919091179101555b945085935061225692505050565b50506040805180820190915265ffffffffffff80851682526001600160d01b0380851660208085019182528854600181018a555f8a815291822095519251909316600160301b029190931617920191909155905081612256565b5f81815260096020526040812060028101546001820154612c53919061405b565b612c5f6109b685610d8b565b11159392505050565b5f5f612c76868686866112b0565b9050612cc481612c866007611638565b612c906006611638565b612c9a6002611638565b6001612ca760078261422b565b612cb290600261431f565b612cbc9190614149565b18181861165a565b505f818152600460205260409081902080546001600160f81b0316600160f81b179055517f789cf55be980739dad1d0699b93b58e806b51c9d96619bfa8fe0a28abaa7b30c90610d7a9083815260200190565b5f306001600160a01b037f000000000000000000000000000000000000000000000000000000000000000016148015612d6f57507f000000000000000000000000000000000000000000000000000000000000000046145b15612d9957507f000000000000000000000000000000000000000000000000000000000000000090565b610a00604080517f8b73c3c69bb8fe3d512ecc4cf759cc79239f7b179b0ffacaa9a75d522b39400f60208201527f0000000000000000000000000000000000000000000000000000000000000000918101919091527f000000000000000000000000000000000000000000000000000000000000000060608201524660808201523060a08201525f9060c00160405160208183030381529060405280519060200120905090565b5f5f5f8351604103612e77576020840151604085015160608601515f1a612e6988828585613214565b955095509550505050612e82565b505081515f91506002905b9250925092565b5f5f5f856001600160a01b03168585604051602401612ea992919061432d565b60408051601f198184030181529181526020820180516001600160e01b0316630b135d3f60e11b17905251612ede9190614345565b5f60405180830381855afa9150503d805f8114612f16576040519150601f19603f3d011682016040523d82523d5f602084013e612f1b565b606091505b5091509150818015612f2f57506020815110155b801561108f57508051630b135d3f60e11b90612f549083016020908101908401613fa3565b149695505050505050565b5f60018211612f6c575090565b816001600160801b8210612f855760809190911c9060401b5b680100000000000000008210612fa05760409190911c9060201b5b6401000000008210612fb75760209190911c9060101b5b620100008210612fcc5760109190911c9060081b5b6101008210612fe05760089190911c9060041b5b60108210612ff35760049190911c9060021b5b60048210612fff5760011b5b600302600190811c908185816130175761301761415c565b048201901c9050600181858161302f5761302f61415c565b048201901c905060018185816130475761304761415c565b048201901c9050600181858161305f5761305f61415c565b048201901c905060018185816130775761307761415c565b048201901c9050600181858161308f5761308f61415c565b048201901c90506130ae8185816130a8576130a861415c565b04821190565b90039392505050565b5f5b8183101561310e575f6130cc84846132dc565b5f8781526020902090915065ffffffffffff86169082015465ffffffffffff1611156130fa57809250613108565b61310581600161405b565b93505b506130b9565b509392505050565b5f80848161312586600161405b565b8511801561314d575061060f60f31b6131418388016020015190565b6001600160f01b031916145b90505f61315d8215156002614214565b90505f8061316b838a61405b565b90505b878110156131c6575f61318c6131878784016020015190565b6132f6565b9050600f8160ff1611156131ab575f5f97509750505050505050612256565b6131b6601084614214565b60ff90911601915060010161316e565b506001999098509650505050505050565b60605f6131e38361336e565b6040805160208082528183019092529192505f91906020820181803683375050509182525060208101929092525090565b5f80807f7fffffffffffffffffffffffffffffff5d576e7357a4501ddfe92f46681b20a084111561324d57505f915060039050826132d2565b604080515f808252602082018084528a905260ff891692820192909252606081018790526080810186905260019060a0016020604051602081039080840390855afa15801561329e573d5f5f3e3d5ffd5b5050604051601f1901519150506001600160a01b0381166132c957505f9250600191508290506132d2565b92505f91508190505b9450945094915050565b5f6132ea600284841861435b565b61127f9084841661405b565b5f60f882901c602f8111801561330f5750603a8160ff16105b1561331d57602f1901610a6b565b60608160ff16118015613333575060678160ff16105b156133415760561901610a6b565b60408160ff16118015613357575060478160ff16105b156133655760361901610a6b565b5060ff92915050565b5f60ff8216601f811115610a6b57604051632cd44ac360e21b815260040160405180910390fd5b5f602082840312156133a5575f5ffd5b81356001600160e01b03198116811461127f575f5ffd5b5f602082840312156133cc575f5ffd5b5035919050565b5f81518084528060208401602086015e5f602082860101526020601f19601f83011685010191505092915050565b602081525f61127f60208301846133d3565b6001600160a01b0381168114610a82575f5ffd5b634e487b7160e01b5f52604160045260245ffd5b604051601f8201601f191681016001600160401b038111828210171561346357613463613427565b604052919050565b5f6001600160401b0382111561348357613483613427565b50601f01601f191660200190565b5f6134a361349e8461346b565b61343b565b90508281528383830111156134b6575f5ffd5b828260208301375f602084830101529392505050565b5f82601f8301126134db575f5ffd5b61127f83833560208501613491565b5f5f5f5f608085870312156134fd575f5ffd5b843561350881613413565b9350602085013561351881613413565b92506040850135915060608501356001600160401b03811115613539575f5ffd5b613545878288016134cc565b91505092959194509250565b5f6001600160401b0382111561356957613569613427565b5060051b60200190565b5f82601f830112613582575f5ffd5b813561359061349e82613551565b8082825260208201915060208360051b8601019250858311156135b1575f5ffd5b602085015b83811015610c195780356135c981613413565b8352602092830192016135b6565b5f82601f8301126135e6575f5ffd5b81356135f461349e82613551565b8082825260208201915060208360051b860101925085831115613615575f5ffd5b602085015b83811015610c1957803583526020928301920161361a565b5f82601f830112613641575f5ffd5b813561364f61349e82613551565b8082825260208201915060208360051b860101925085831115613670575f5ffd5b602085015b83811015610c195780356001600160401b03811115613692575f5ffd5b6136a1886020838a01016134cc565b84525060209283019201613675565b5f5f5f5f608085870312156136c3575f5ffd5b84356001600160401b038111156136d8575f5ffd5b6136e487828801613573565b94505060208501356001600160401b038111156136ff575f5ffd5b61370b878288016135d7565b93505060408501356001600160401b03811115613726575f5ffd5b61373287828801613632565b949793965093946060013593505050565b634e487b7160e01b5f52602160045260245ffd5b6008811061377357634e487b7160e01b5f52602160045260245ffd5b9052565b60208101610a6b8284613757565b5f5f60408385031215613796575f5ffd5b8235915060208301356137a881613413565b809150509250929050565b803560ff81168114610ed6575f5ffd5b5f5f604083850312156137d4575f5ffd5b823591506137e4602084016137b3565b90509250929050565b5f5f83601f8401126137fd575f5ffd5b5081356001600160401b03811115613813575f5ffd5b60208301915083602082850101111561382a575f5ffd5b9250929050565b5f5f5f5f5f5f5f60c0888a031215613847575f5ffd5b87359650613857602089016137b3565b9550604088013561386781613413565b945060608801356001600160401b03811115613881575f5ffd5b61388d8a828b016137ed565b90955093505060808801356001600160401b038111156138ab575f5ffd5b6138b78a828b016134cc565b92505060a08801356001600160401b038111156138d2575f5ffd5b6138de8a828b016134cc565b91505092959891949750929550565b5f5f5f5f5f60808688031215613901575f5ffd5b85359450613911602087016137b3565b935060408601356001600160401b0381111561392b575f5ffd5b613937888289016137ed565b90945092505060608601356001600160401b03811115613955575f5ffd5b613961888289016134cc565b9150509295509295909350565b65ffffffffffff81168114610a82575f5ffd5b5f60208284031215613991575f5ffd5b813561127f8161396e565b5f5f5f5f606085870312156139af575f5ffd5b843593506139bf602086016137b3565b925060408501356001600160401b038111156139d9575f5ffd5b6139e5878288016137ed565b95989497509550505050565b5f5f5f5f60808587031215613a04575f5ffd5b84356001600160401b03811115613a19575f5ffd5b613a2587828801613573565b94505060208501356001600160401b03811115613a40575f5ffd5b613a4c878288016135d7565b93505060408501356001600160401b03811115613a67575f5ffd5b613a7387828801613632565b92505060608501356001600160401b03811115613a8e575f5ffd5b8501601f81018713613a9e575f5ffd5b61354587823560208401613491565b5f60208284031215613abd575f5ffd5b813561127f81613413565b5f8151808452602084019350602083015f5b82811015613af8578151865260209586019590910190600101613ada565b5093949350505050565b60ff60f81b8816815260e060208201525f613b2060e08301896133d3565b8281036040840152613b3281896133d3565b606084018890526001600160a01b038716608085015260a0840186905283810360c08501529050613b638185613ac8565b9a9950505050505050505050565b5f5f5f5f60808587031215613b84575f5ffd5b84359350613b94602086016137b3565b92506040850135613ba481613413565b915060608501356001600160401b03811115613539575f5ffd5b5f5f5f60608486031215613bd0575f5ffd5b8335613bdb81613413565b92506020840135915060408401356001600160401b03811115613bfc575f5ffd5b613c08868287016134cc565b9150509250925092565b5f5f5f5f5f60a08688031215613c26575f5ffd5b8535613c3181613413565b94506020860135613c4181613413565b935060408601356001600160401b03811115613c5b575f5ffd5b613c67888289016135d7565b93505060608601356001600160401b03811115613c82575f5ffd5b613c8e888289016135d7565b92505060808601356001600160401b03811115613955575f5ffd5b5f5f5f5f60608587031215613cbc575f5ffd5b8435613cc781613413565b93506020850135925060408501356001600160401b038111156139d9575f5ffd5b5f60208284031215613cf8575f5ffd5b813563ffffffff8116811461127f575f5ffd5b5f5f60408385031215613d1c575f5ffd5b8235613d2781613413565b946020939093013593505050565b5f5f5f5f5f60a08688031215613d49575f5ffd5b8535613d5481613413565b94506020860135613d6481613413565b9350604086013592506060860135915060808601356001600160401b03811115613955575f5ffd5b600181811c90821680613da057607f821691505b602082108103613dbe57634e487b7160e01b5f52602260045260245ffd5b50919050565b634e487b7160e01b5f52603260045260245ffd5b5f60208284031215613de8575f5ffd5b81516001600160401b03811115613dfd575f5ffd5b8201601f81018413613e0d575f5ffd5b8051613e1b61349e8261346b565b818152856020838501011115613e2f575f5ffd5b8160208401602083015e5f91810160200191909152949350505050565b634e487b7160e01b5f52601160045260245ffd5b65ffffffffffff8281168282160390811115610a6b57610a6b613e4c565b5f60208284031215613e8e575f5ffd5b815161127f8161396e565b65ffffffffffff8181168382160190811115610a6b57610a6b613e4c565b818382375f9101908152919050565b5f8151808452602084019350602083015f5b82811015613af85781516001600160a01b0316865260209586019590910190600101613ed8565b5f82825180855260208501945060208160051b830101602085015f5b83811015613f4d57601f19858403018852613f378383516133d3565b6020988901989093509190910190600101613f1b565b50909695505050505050565b608081525f613f6b6080830187613ec6565b8281036020840152613f7d8187613ac8565b90508281036040840152613f918186613eff565b91505082606083015295945050505050565b5f60208284031215613fb3575f5ffd5b5051919050565b83815260608101613fce6020830185613757565b826040830152949350505050565b5f60208284031215613fec575f5ffd5b8151801515811461127f575f5ffd5b84815260ff84166020820152826040820152608060608201525f61108f60808301846133d3565b85815260ff8516602082015283604082015260a060608201525f61404960a08301856133d3565b8281036080840152610fd881856133d3565b80820180821115610a6b57610a6b613e4c565b8981526001600160a01b0389166020820152610120604082018190525f906140989083018a613ec6565b82810360608401526140aa818a613ac8565b9050828103608084015280885180835260208301915060208160051b84010160208b015f5b8381101561410157601f198684030185526140eb8383516133d3565b60209586019590935091909101906001016140cf565b505085810360a0870152614115818b613eff565b93505050508560c08401528460e084015282810361010084015261413981856133d3565b9c9b505050505050505050505050565b81810381811115610a6b57610a6b613e4c565b634e487b7160e01b5f52601260045260245ffd5b60a081525f61418260a0830188613ec6565b82810360208401526141948188613ac8565b905082810360408401526141a88187613eff565b60608401959095525050608001529392505050565b60c081525f6141cf60c0830189613ec6565b82810360208401526141e18189613ac8565b905082810360408401526141f58188613eff565b60608401969096525050608081019290925260a0909101529392505050565b8082028115828204841417610a6b57610a6b613e4c565b60ff8181168382160190811115610a6b57610a6b613e4c565b6001815b60018411156122565780850481111561426357614263613e4c565b600184161561427157908102905b60019390931c928002614248565b5f8261428d57506001610a6b565b8161429957505f610a6b565b81600181146142af57600281146142b9576142d5565b6001915050610a6b565b60ff8411156142ca576142ca613e4c565b50506001821b610a6b565b5060208310610133831016604e8410600b84101617156142f8575081810a610a6b565b6143045f198484614244565b805f190482111561431757614317613e4c565b029392505050565b5f61127f60ff84168361427f565b828152604060208201525f61127c60408301846133d3565b5f82518060208501845e5f920191825250919050565b5f8261437557634e487b7160e01b5f52601260045260245ffd5b50049056fea2646970667358221220524ffc9cd28ace18502ec1815569cb4a36cdd74c94b0bcb5d966e040f0b814ed64736f6c634300081c0033",
  "linkReferences": {},
  "deployedLinkReferences": {}
}