{
  "_format": "hh-sol-artifact-1",
  "contractName": "GovernanceToken",
  "sourceName": "contracts/GovernanceToken.sol",
  "abi": [
    {
      "inputs": [],
      "stateMutability": "nonpayable",
      "type": "constructor"
    },
    {
      "inputs": [],
      "name": "CheckpointUnorderedInsertion",
      "type": "error"
    },
    {
      "inputs": [],
      "name": "ECDSAInvalidSignature",
      "type": "error"
    },
    {
      "inputs": [
        {
          "internalType": "uint256",
          "name": "length",
          "type": "uint256"
        }
      ],
      "name": "ECDSAInvalidSignatureLength",
      "type": "error"
    },
    {
      "inputs": [
        {
          "internalType": "bytes32",
          "name": "s",
          "type": "bytes32"
        }
      ],
      "name": "ECDSAInvalidSignatureS",
      "type": "error"
    },
    {
      "inputs": [
        {
          "internalType": "uint256",
          "name": "increasedSupply",
          "type": "uint256"
        },
        {
          "internalType": "uint256",
          "name": "cap",
          "type": "uint256"
        }
      ],
      "name": "ERC20ExceededSafeSupply",
      "type": "error"
    },
    {
      "inputs": [
        {
          "internalType": "address",
          "name": "spender",
          "type": "address"
        },
        {
          "internalType": "uint256",
          "name": "allowance",
          "type": "uint256"
        },
        {
          "internalType": "uint256",
          "name": "needed",
          "type": "uint256"
        }
      ],
      "name": "ERC20InsufficientAllowance",
      "type": "error"
    },
    {
      "inputs": [
        {
          "internalType": "address",
          "name": "sender",
          "type": "address"
        },
        {
          "internalType": "uint256",
          "name": "balance",
          "type": "uint256"
        },
        {
          "internalType": "uint256",
          "name": "needed",
          "type": "uint256"
        }
      ],
      "name": "ERC20InsufficientBalance",
      "type": "error"
    },
    {
      "inputs": [
        {
          "internalType": "address",
          "name": "approver",
          "type": "address"
        }
      ],
      "name": "ERC20InvalidApprover",
      "type": "error"
    },
    {
      "inputs": [
        {
          "internalType": "address",
          "name": "receiver",
          "type": "address"
        }
      ],
      "name": "ERC20InvalidReceiver",
      "type": "error"
    },
    {
      "inputs": [
        {
          "internalType": "address",
          "name": "sender",
          "type": "address"
        }
      ],
      "name": "ERC20InvalidSender",
      "type": "error"
    },
    {
      "inputs": [
        {
          "internalType": "address",
          "name": "spender",
          "type": "address"
        }
      ],
      "name": "ERC20InvalidSpender",
      "type": "error"
    },
    {
      "inputs": [
        {
          "internalType": "uint256",
          "name": "timepoint",
          "type": "uint256"
        },
        {
          "internalType": "uint48",
          "name": "clock",
          "type": "uint48"
        }
      ],
      "name": "ERC5805FutureLookup",
      "type": "error"
    },
    {
      "inputs": [],
      "name": "ERC6372InconsistentClock",
      "type": "error"
    },
    {
      "inputs": [
        {
          "internalType": "address",
          "name": "account",
          "type": "address"
        },
        {
          "internalType": "uint256",
          "name": "currentNonce",
          "type": "uint256"
        }
      ],
      "name": "InvalidAccountNonce",
      "type": "error"
    },
    {
      "inputs": [],
      "name": "InvalidShortString",
      "type": "error"
    },
    {
      "inputs": [
        {
          "internalType": "uint8",
          "name": "bits",
          "type": "uint8"
        },
        {
          "internalType": "uint256",
          "name": "value",
          "type": "uint256"
        }
      ],
      "name": "SafeCastOverflowedUintDowncast",
      "type": "error"
    },
    {
      "inputs": [
        {
          "internalType": "string",
          "name": "str",
          "type": "string"
        }
      ],
      "name": "StringTooLong",
      "type": "error"
    },
    {
      "inputs": [
        {
          "internalType": "uint256",
          "name": "expiry",
          "type": "uint256"
        }
      ],
      "name": "VotesExpiredSignature",
      "type": "error"
    },
    {
      "anonymous": false,
      "inputs": [
        {
          "indexed": true,
          "internalType": "address",
          "name": "owner",
          "type": "address"
        },
        {
          "indexed": true,
          "internalType": "address",
          "name": "spender",
          "type": "address"
        },
        {
          "indexed": false,
          "internalType": "uint256",
          "name": "value",
          "type": "uint256"
        }
      ],
      "name": "Approval",
      "type": "event"
    },
    {
      "anonymous": false,
      "inputs": [
        {
          "indexed": true,
          "internalType": "address",
          "name": "delegator",
          "type": "address"
        },
        {
          "indexed": true,
          "internalType": "address",
          "name": "fromDelegate",
          "type": "address"
        },
        {
          "indexed": true,
          "internalType": "address",
          "name": "toDelegate",
          "type": "address"
        }
      ],
      "name": "DelegateChanged",
      "type": "event"
    },
    {
      "anonymous": false,
      "inputs": [
        {
          "indexed": true,
          "internalType": "address",
          "name": "delegate",
          "type": "address"
        },
        {
          "indexed": false,
          "internalType": "uint256",
          "name": "previousVotes",
          "type": "uint256"
        },
        {
          "indexed": false,
          "internalType": "uint256",
          "name": "newVotes",
          "type": "uint256"
        }
      ],
      "name": "DelegateVotesChanged",
      "type": "event"
    },
    {
      "anonymous": false,
      "inputs": [],
      "name": "EIP712DomainChanged",
      "type": "event"
    },
    {
      "anonymous": false,
      "inputs": [
        {
          "indexed": true,
          "internalType": "address",
          "name": "from",
          "type": "address"
        },
        {
          "indexed": true,
          "internalType": "address",
          "name": "to",
          "type": "address"
        },
        {
          "indexed": false,
          "internalType": "uint256",
          "name": "value",
          "type": "uint256"
        }
      ],
      "name": "Transfer",
      "type": "event"
    },
    {
      "inputs": [],
      "name": "CLOCK_MODE",
      "outputs": [
        {
          "internalType": "string",
          "name": "",
          "type": "string"
        }
      ],
      "stateMutability": "view",
      "type": "function"
    },
    {
      "inputs": [
        {
          "internalType": "address",
          "name": "owner",
          "type": "address"
        },
        {
          "internalType": "address",
          "name": "spender",
          "type": "address"
        }
      ],
      "name": "allowance",
      "outputs": [
        {
          "internalType": "uint256",
          "name": "",
          "type": "uint256"
        }
      ],
      "stateMutability": "view",
      "type": "function"
    },
    {
      "inputs": [
        {
          "internalType": "address",
          "name": "spender",
          "type": "address"
        },
        {
          "internalType": "uint256",
          "name": "value",
          "type": "uint256"
        }
      ],
      "name": "approve",
      "outputs": [
        {
          "internalType": "bool",
          "name": "",
          "type": "bool"
        }
      ],
      "stateMutability": "nonpayable",
      "type": "function"
    },
    {
      "inputs": [
        {
          "internalType": "address",
          "name": "account",
          "type": "address"
        }
      ],
      "name": "balanceOf",
      "outputs": [
        {
          "internalType": "uint256",
          "name": "",
          "type": "uint256"
        }
      ],
      "stateMutability": "view",
      "type": "function"
    },
    {
      "inputs": [
        {
          "internalType": "address",
          "name": "account",
          "type": "address"
        },
        {
          "internalType": "uint32",
          "name": "pos",
          "type": "uint32"
        }
      ],
      "name": "checkpoints",
      "outputs": [
        {
          "components": [
            {
              "internalType": "uint48",
              "name": "_key",
              "type": "uint48"
            },
            {
              "internalType": "uint208",
              "name": "_value",
              "type": "uint208"
            }
          ],
          "internalType": "struct Checkpoints.Checkpoint208",
          "name": "",
          "type": "tuple"
        }
      ],
      "stateMutability": "view",
      "type": "function"
    },
    {
      "inputs": [],
      "name": "clock",
      "outputs": [
        {
          "internalType": "uint48",
          "name": "",
          "type": "uint48"
        }
      ],
      "stateMutability": "view",
      "type": "function"
    },
    {
      "inputs": [],
      "name": "decimals",
      "outputs": [
        {
          "internalType": "uint8",
          "name": "",
          "type": "uint8"
        }
      ],
      "stateMutability": "view",
      "type": "function"
    },
    {
      "inputs": [
        {
          "internalType": "address",
          "name": "delegatee",
          "type": "address"
        }
      ],
      "name": "delegate",
      "outputs": [],
      "stateMutability": "nonpayable",
      "type": "function"
    },
    {
      "inputs": [
        {
          "internalType": "address",
          "name": "delegatee",
          "type": "address"
        },
        {
          "internalType": "uint256",
          "name": "nonce",
          "type": "uint256"
        },
        {
          "internalType": "uint256",
          "name": "expiry",
          "type": "uint256"
        },
        {
          "internalType": "uint8",
          "name": "v",
          "type": "uint8"
        },
        {
          "internalType": "bytes32",
          "name": "r",
          "type": "bytes32"
        },
        {
          "internalType": "bytes32",
          "name": "s",
          "type": "bytes32"
        }
      ],
      "name": "delegateBySig",
      "outputs": [],
      "stateMutability": "nonpayable",
      "type": "function"
    },
    {
      "inputs": [
        {
          "internalType": "address",
          "name": "account",
          "type": "address"
        }
      ],
      "name": "delegates",
      "outputs": [
        {
          "internalType": "address",
          "name": "",
          "type": "address"
        }
      ],
      "stateMutability": "view",
      "type": "function"
    },
    {
      "inputs": [],
      "name": "eip712Domain",
      "outputs": [
        {
          "internalType": "bytes1",
          "name": "fields",
          "type": "bytes1"
        },
        {
          "internalType": "string",
          "name": "name",
          "type": "string"
        },
        {
          "internalType": "string",
          "name": "version",
          "type": "string"
        },
        {
          "internalType": "uint256",
          "name": "chainId",
          "type": "uint256"
        },
        {
          "internalType": "address",
          "name": "verifyingContract",
          "type": "address"
        },
        {
          "internalType": "bytes32",
          "name": "salt",
          "type": "bytes32"
        },
        {
          "internalType": "uint256[]",
          "name": "extensions",
          "type": "uint256[]"
        }
      ],
      "stateMutability": "view",
      "type": "function"
    },
    {
      "inputs": [
        {
          "internalType": "uint256",
          "name": "timepoint",
          "type": "uint256"
        }
      ],
      "name": "getPastTotalSupply",
      "outputs": [
        {
          "internalType": "uint256",
          "name": "",
          "type": "uint256"
        }
      ],
      "stateMutability": "view",
      "type": "function"
    },
    {
      "inputs": [
        {
          "internalType": "address",
          "name": "account",
          "type": "address"
        },
        {
          "internalType": "uint256",
          "name": "timepoint",
          "type": "uint256"
        }
      ],
      "name": "getPastVotes",
      "outputs": [
        {
          "internalType": "uint256",
          "name": "",
          "type": "uint256"
        }
      ],
      "stateMutability": "view",
      "type": "function"
    },
    {
      "inputs": [
        {
          "internalType": "address",
          "name": "account",
          "type": "address"
        }
      ],
      "name": "getVotes",
      "outputs": [
        {
          "internalType": "uint256",
          "name": "",
          "type": "uint256"
        }
      ],
      "stateMutability": "view",
      "type": "function"
    },
    {
      "inputs": [],
      "name": "name",
      "outputs": [
        {
          "internalType": "string",
          "name": "",
          "type": "string"
        }
      ],
      "stateMutability": "view",
      "type": "function"
    },
    {
      "inputs": [
        {
          "internalType": "address",
          "name": "owner",
          "type": "address"
        }
      ],
      "name": "nonces",
      "outputs": [
        {
          "internalType": "uint256",
          "name": "",
          "type": "uint256"
        }
      ],
      "stateMutability": "view",
      "type": "function"
    },
    {
      "inputs": [
        {
          "internalType": "address",
          "name": "account",
          "type": "address"
        }
      ],
      "name": "numCheckpoints",
      "outputs": [
        {
          "internalType": "uint32",
          "name": "",
          "type": "uint32"
        }
      ],
      "stateMutability": "view",
      "type": "function"
    },
    {
      "inputs": [],
      "name": "s_maxSupply",
      "outputs": [
        {
          "internalType": "uint256",
          "name": "",
          "type": "uint256"
        }
      ],
      "stateMutability": "view",
      "type": "function"
    },
    {
      "inputs": [],
      "name": "symbol",
      "outputs": [
        {
          "internalType": "string",
          "name": "",
          "type": "string"
        }
      ],
      "stateMutability": "view",
      "type": "function"
    },
    {
      "inputs": [],
      "name": "totalSupply",
      "outputs": [
        {
          "internalType": "uint256",
          "name": "",
          "type": "uint256"
        }
      ],
      "stateMutability": "view",
      "type": "function"
    },
    {
      "inputs": [
        {
          "internalType": "address",
          "name": "to",
          "type": "address"
        },
        {
          "internalType": "uint256",
          "name": "value",
          "type": "uint256"
        }
      ],
      "name": "transfer",
      "outputs": [
        {
          "internalType": "bool",
          "name": "",
          "type": "bool"
        }
      ],
      "stateMutability": "nonpayable",
      "type": "function"
    },
    {
      "inputs": [
        {
          "internalType": "address",
          "name": "from",
          "type": "address"
        },
        {
          "internalType": "address",
          "name": "to",
          "type": "address"
        },
        {
          "internalType": "uint256",
          "name": "value",
          "type": "uint256"
        }
      ],
      "name": "transferFrom",
      "outputs": [
        {
          "internalType": "bool",
          "name": "",
          "type": "bool"
        }
      ],
      "stateMutability": "nonpayable",
      "type": "function"
    }
  ],
  "bytecode": "0x61016060405269d3c21bcecceda1000000600b5534801561001e575f5ffd5b50604080518082018252600f8082526e23b7bb32b93730b731b2aa37b5b2b760891b60208084018290528451808601865260018152603160f81b8183015285518087018752938452838201929092528451808601909552600285526111d560f21b90850152919260036100918382610894565b50600461009e8282610894565b506100ae91508390506005610165565b610120526100bd816006610165565b61014052815160208084019190912060e052815190820120610100524660a05261014960e05161010051604080517f8b73c3c69bb8fe3d512ecc4cf759cc79239f7b179b0ffacaa9a75d522b39400f60208201529081019290925260608201524660808201523060a08201525f9060c00160405160208183030381529060405280519060200120905090565b60805250503060c052600b54610160903390610197565b610a1e565b5f60208351101561018057610179836101d4565b9050610191565b8161018b8482610894565b5060ff90505b92915050565b6001600160a01b0382166101c55760405163ec442f0560e01b81525f60048201526024015b60405180910390fd5b6101d05f8383610211565b5050565b5f5f829050601f815111156101fe578260405163305a27a960e01b81526004016101bc919061094e565b805161020982610983565b179392505050565b61021c83838361027c565b6001600160a01b03831661026c575f61023460025490565b90506001600160d01b038082111561026957604051630e58ae9360e11b815260048101839052602481018290526044016101bc565b50505b6102778383836103a2565b505050565b6001600160a01b0383166102a6578060025f82825461029b91906109ba565b909155506103169050565b6001600160a01b0383165f90815260208190526040902054818110156102f85760405163391434e360e21b81526001600160a01b038516600482015260248101829052604481018390526064016101bc565b6001600160a01b0384165f9081526020819052604090209082900390555b6001600160a01b03821661033257600280548290039055610350565b6001600160a01b0382165f9081526020819052604090208054820190555b816001600160a01b0316836001600160a01b03167fddf252ad1be2c89b69c2b068fc378daa952ba7f163c4a11628f55a4df523b3ef8360405161039591815260200190565b60405180910390a3505050565b6001600160a01b0383166103d0576103cd600a6106db61042a60201b176103c88461043c565b610473565b50505b6001600160a01b0382166103f9576103f6600a6106e66104a860201b176103c88461043c565b50505b6001600160a01b038381165f90815260086020526040808220548584168352912054610277929182169116836104b3565b5f61043582846109cd565b9392505050565b5f6001600160d01b0382111561046f576040516306dfcc6560e41b815260d06004820152602481018390526044016101bc565b5090565b5f8061049b610480610603565b61049361048c88610611565b868860201c565b879190610658565b915091505b935093915050565b5f61043582846109ec565b816001600160a01b0316836001600160a01b0316141580156104d457505f81115b15610277576001600160a01b0383161561056c576001600160a01b0383165f9081526009602090815260408220829161051a91906104a8901b6106e6176103c88661043c565b6001600160d01b031691506001600160d01b03169150846001600160a01b03165f51602061255c5f395f51905f528383604051610561929190918252602082015260400190565b60405180910390a250505b6001600160a01b03821615610277576001600160a01b0382165f908152600960209081526040822082916105ad919061042a901b6106db176103c88661043c565b6001600160d01b031691506001600160d01b03169150836001600160a01b03165f51602061255c5f395f51905f5283836040516105f4929190918252602082015260400190565b60405180910390a25050505050565b5f61060c610665565b905090565b80545f908015610650576106378361062a600184610a0b565b5f91825260209091200190565b54660100000000000090046001600160d01b0316610435565b5f9392505050565b5f8061049b85858561066f565b5f61060c436107cb565b82545f908190801561076e575f61068b8761062a600185610a0b565b805490915065ffffffffffff80821691660100000000000090046001600160d01b03169088168211156106d157604051632520601d60e01b815260040160405180910390fd5b8765ffffffffffff168265ffffffffffff160361070d57825465ffffffffffff1666010000000000006001600160d01b03891602178355610760565b6040805180820190915265ffffffffffff808a1682526001600160d01b03808a1660208085019182528d54600181018f555f8f815291909120945191519092166601000000000000029216919091179101555b94508593506104a092505050565b50506040805180820190915265ffffffffffff80851682526001600160d01b0380851660208085019182528854600181018a555f8a81529182209551925190931666010000000000000291909316179201919091559050816104a0565b5f65ffffffffffff82111561046f576040516306dfcc6560e41b815260306004820152602481018390526044016101bc565b634e487b7160e01b5f52604160045260245ffd5b600181811c9082168061082557607f821691505b60208210810361084357634e487b7160e01b5f52602260045260245ffd5b50919050565b601f82111561027757805f5260205f20601f840160051c8101602085101561086e5750805b601f840160051c820191505b8181101561088d575f815560010161087a565b5050505050565b81516001600160401b038111156108ad576108ad6107fd565b6108c1816108bb8454610811565b84610849565b6020601f8211600181146108f3575f83156108dc5750848201515b5f19600385901b1c1916600184901b17845561088d565b5f84815260208120601f198516915b828110156109225787850151825560209485019460019092019101610902565b508482101561093f57868401515f19600387901b60f8161c191681555b50505050600190811b01905550565b602081525f82518060208401528060208501604085015e5f604082850101526040601f19601f83011684010191505092915050565b80516020808301519190811015610843575f1960209190910360031b1b16919050565b634e487b7160e01b5f52601160045260245ffd5b80820180821115610191576101916109a6565b6001600160d01b038181168382160190811115610191576101916109a6565b6001600160d01b038281168282160390811115610191576101916109a6565b81810381811115610191576101916109a6565b60805160a05160c05160e051610100516101205161014051611aed610a6f5f395f6109aa01525f61097d01525f61114201525f61111a01525f61107501525f61109f01525f6110c90152611aed5ff3fe608060405234801561000f575f5ffd5b506004361061013d575f3560e01c806370a08231116100b457806395d89b411161007957806395d89b41146102f75780639ab24eb0146102ff578063a9059cbb14610312578063c3cda52014610325578063dd62ed3e14610338578063f1127ed814610370575f5ffd5b806370a082311461025a5780637ecebe001461028257806384b0196e146102aa5780638e539e8c146102c557806391ddadf4146102d8575f5ffd5b80633a46b1a8116101055780633a46b1a8146101b65780634bf5d7e9146101c9578063587cde1e146101d15780635c19a95c146102145780635d641847146102295780636fcfff4514610232575f5ffd5b806306fdde0314610141578063095ea7b31461015f57806318160ddd1461018257806323b872dd14610194578063313ce567146101a7575b5f5ffd5b6101496103af565b604051610156919061178e565b60405180910390f35b61017261016d3660046117bb565b61043f565b6040519015158152602001610156565b6002545b604051908152602001610156565b6101726101a23660046117e3565b610458565b60405160128152602001610156565b6101866101c43660046117bb565b61047b565b6101496104b5565b6101fc6101df36600461181d565b6001600160a01b039081165f908152600860205260409020541690565b6040516001600160a01b039091168152602001610156565b61022761022236600461181d565b61052d565b005b610186600b5481565b61024561024036600461181d565b61053c565b60405163ffffffff9091168152602001610156565b61018661026836600461181d565b6001600160a01b03165f9081526020819052604090205490565b61018661029036600461181d565b6001600160a01b03165f9081526007602052604090205490565b6102b2610546565b6040516101569796959493929190611836565b6101866102d33660046118cc565b610588565b6102e06105ac565b60405165ffffffffffff9091168152602001610156565b6101496105ba565b61018661030d36600461181d565b6105c9565b6101726103203660046117bb565b6105e9565b6102276103333660046118e3565b6105f6565b61018661034636600461193e565b6001600160a01b039182165f90815260016020908152604080832093909416825291909152205490565b61038361037e36600461196f565b6106b7565b60408051825165ffffffffffff1681526020928301516001600160d01b03169281019290925201610156565b6060600380546103be906119ac565b80601f01602080910402602001604051908101604052809291908181526020018280546103ea906119ac565b80156104355780601f1061040c57610100808354040283529160200191610435565b820191905f5260205f20905b81548152906001019060200180831161041857829003601f168201915b5050505050905090565b5f3361044c8185856106f1565b60019150505b92915050565b5f33610465858285610703565b61047085858561077f565b506001949350505050565b5f6104a5610488836107dc565b6001600160a01b0385165f9081526009602052604090209061082a565b6001600160d01b03169392505050565b60606104bf6108da565b65ffffffffffff166104cf6105ac565b65ffffffffffff16146104f5576040516301bfc1c560e61b815260040160405180910390fd5b5060408051808201909152601d81527f6d6f64653d626c6f636b6e756d6265722666726f6d3d64656661756c74000000602082015290565b3361053881836108e4565b5050565b5f61045282610955565b5f6060805f5f5f6060610557610976565b61055f6109a3565b604080515f80825260208201909252600f60f81b9b939a50919850469750309650945092509050565b5f61059d610595836107dc565b600a9061082a565b6001600160d01b031692915050565b5f6105b56108da565b905090565b6060600480546103be906119ac565b6001600160a01b0381165f90815260096020526040812061059d906109d0565b5f3361044c81858561077f565b8342111561061f57604051632341d78760e11b8152600481018590526024015b60405180910390fd5b604080517fe48329057bfd03d55e49b547132e39cffd9c1820ad7b9d4c5307691425d15adf60208201526001600160a01b0388169181019190915260608101869052608081018590525f90610698906106909060a00160405160208183030381529060405280519060200120610a07565b858585610a33565b90506106a48187610a5f565b6106ae81886108e4565b50505050505050565b604080518082019091525f80825260208201526106d48383610ab1565b9392505050565b5f6106d482846119f8565b5f6106d48284611a17565b6106fe8383836001610ae5565b505050565b6001600160a01b038381165f908152600160209081526040808320938616835292905220545f19811015610779578181101561076b57604051637dc7a0d960e11b81526001600160a01b03841660048201526024810182905260448101839052606401610616565b61077984848484035f610ae5565b50505050565b6001600160a01b0383166107a857604051634b637e8f60e11b81525f6004820152602401610616565b6001600160a01b0382166107d15760405163ec442f0560e01b81525f6004820152602401610616565b6106fe838383610bb7565b5f5f6107e66105ac565b90508065ffffffffffff16831061082157604051637669fc0f60e11b81526004810184905265ffffffffffff82166024820152604401610616565b6106d483610c1d565b81545f9081816005811115610886575f61084384610c53565b61084d9085611a36565b5f8881526020902090915081015465ffffffffffff908116908716101561087657809150610884565b610881816001611a49565b92505b505b5f61089387878585610dab565b905080156108cd576108b7876108aa600184611a36565b5f91825260209091200190565b54600160301b90046001600160d01b03166108cf565b5f5b979650505050505050565b5f6105b543610c1d565b6001600160a01b038281165f8181526008602052604080822080548686166001600160a01b0319821681179092559151919094169392849290917f3134e8a2e6d97e929a7e54011ea5485d7d196dd5f0ba4d4ef95803e8e3fc257f9190a46106fe818361095086610e0a565b610e27565b6001600160a01b0381165f9081526009602052604081205461045290610f90565b60606105b57f00000000000000000000000000000000000000000000000000000000000000006005610fc0565b60606105b57f00000000000000000000000000000000000000000000000000000000000000006006610fc0565b80545f9080156109ff576109e9836108aa600184611a36565b54600160301b90046001600160d01b03166106d4565b5f9392505050565b5f610452610a13611069565b8360405161190160f01b8152600281019290925260228201526042902090565b5f5f5f5f610a4388888888611192565b925092509250610a53828261125a565b50909695505050505050565b6001600160a01b0382165f9081526007602052604090208054600181019091558181146106fe576040516301d4b62360e61b81526001600160a01b038416600482015260248101829052604401610616565b604080518082019091525f80825260208201526001600160a01b0383165f9081526009602052604090206106d49083611312565b6001600160a01b038416610b0e5760405163e602df0560e01b81525f6004820152602401610616565b6001600160a01b038316610b3757604051634a1406b160e11b81525f6004820152602401610616565b6001600160a01b038085165f908152600160209081526040808320938716835292905220829055801561077957826001600160a01b0316846001600160a01b03167f8c5be1e5ebec7d5bd14f71427d1e84f3dd0314c0f7b2291e5b200ac8c7c3b92584604051610ba991815260200190565b60405180910390a350505050565b610bc283838361137f565b6001600160a01b038316610c12575f610bda60025490565b90506001600160d01b0380821115610c0f57604051630e58ae9360e11b81526004810183905260248101829052604401610616565b50505b6106fe8383836114a5565b5f65ffffffffffff821115610c4f576040516306dfcc6560e41b81526030600482015260248101839052604401610616565b5090565b5f60018211610c60575090565b816001600160801b8210610c795760809190911c9060401b5b680100000000000000008210610c945760409190911c9060201b5b6401000000008210610cab5760209190911c9060101b5b620100008210610cc05760109190911c9060081b5b6101008210610cd45760089190911c9060041b5b60108210610ce75760049190911c9060021b5b60048210610cf35760011b5b600302600190811c90818581610d0b57610d0b611a5c565b048201901c90506001818581610d2357610d23611a5c565b048201901c90506001818581610d3b57610d3b611a5c565b048201901c90506001818581610d5357610d53611a5c565b048201901c90506001818581610d6b57610d6b611a5c565b048201901c90506001818581610d8357610d83611a5c565b048201901c9050610da2818581610d9c57610d9c611a5c565b04821190565b90039392505050565b5f5b81831015610e02575f610dc0848461151a565b5f8781526020902090915065ffffffffffff86169082015465ffffffffffff161115610dee57809250610dfc565b610df9816001611a49565b93505b50610dad565b509392505050565b6001600160a01b0381165f90815260208190526040812054610452565b816001600160a01b0316836001600160a01b031614158015610e4857505f81115b156106fe576001600160a01b03831615610eef576001600160a01b0383165f9081526009602052604081208190610e8a906106e6610e8586611534565b611567565b6001600160d01b031691506001600160d01b03169150846001600160a01b03167fdec2bacdd2f05b59de34da9b523dff8be42e5e38e818c82fdb0bae774387a7248383604051610ee4929190918252602082015260400190565b60405180910390a250505b6001600160a01b038216156106fe576001600160a01b0382165f9081526009602052604081208190610f27906106db610e8586611534565b6001600160d01b031691506001600160d01b03169150836001600160a01b03167fdec2bacdd2f05b59de34da9b523dff8be42e5e38e818c82fdb0bae774387a7248383604051610f81929190918252602082015260400190565b60405180910390a25050505050565b5f63ffffffff821115610c4f576040516306dfcc6560e41b81526020600482015260248101839052604401610616565b606060ff8314610fda57610fd38361159f565b9050610452565b818054610fe6906119ac565b80601f0160208091040260200160405190810160405280929190818152602001828054611012906119ac565b801561105d5780601f106110345761010080835404028352916020019161105d565b820191905f5260205f20905b81548152906001019060200180831161104057829003601f168201915b50505050509050610452565b5f306001600160a01b037f0000000000000000000000000000000000000000000000000000000000000000161480156110c157507f000000000000000000000000000000000000000000000000000000000000000046145b156110eb57507f000000000000000000000000000000000000000000000000000000000000000090565b6105b5604080517f8b73c3c69bb8fe3d512ecc4cf759cc79239f7b179b0ffacaa9a75d522b39400f60208201527f0000000000000000000000000000000000000000000000000000000000000000918101919091527f000000000000000000000000000000000000000000000000000000000000000060608201524660808201523060a08201525f9060c00160405160208183030381529060405280519060200120905090565b5f80807f7fffffffffffffffffffffffffffffff5d576e7357a4501ddfe92f46681b20a08411156111cb57505f91506003905082611250565b604080515f808252602082018084528a905260ff891692820192909252606081018790526080810186905260019060a0016020604051602081039080840390855afa15801561121c573d5f5f3e3d5ffd5b5050604051601f1901519150506001600160a01b03811661124757505f925060019150829050611250565b92505f91508190505b9450945094915050565b5f82600381111561126d5761126d611a70565b03611276575050565b600182600381111561128a5761128a611a70565b036112a85760405163f645eedf60e01b815260040160405180910390fd5b60028260038111156112bc576112bc611a70565b036112dd5760405163fce698f760e01b815260048101829052602401610616565b60038260038111156112f1576112f1611a70565b03610538576040516335e2f38360e21b815260048101829052602401610616565b604080518082019091525f8082526020820152825f018263ffffffff168154811061133f5761133f611a84565b5f9182526020918290206040805180820190915291015465ffffffffffff81168252600160301b90046001600160d01b0316918101919091529392505050565b6001600160a01b0383166113a9578060025f82825461139e9190611a49565b909155506114199050565b6001600160a01b0383165f90815260208190526040902054818110156113fb5760405163391434e360e21b81526001600160a01b03851660048201526024810182905260448101839052606401610616565b6001600160a01b0384165f9081526020819052604090209082900390555b6001600160a01b03821661143557600280548290039055611453565b6001600160a01b0382165f9081526020819052604090208054820190555b816001600160a01b0316836001600160a01b03167fddf252ad1be2c89b69c2b068fc378daa952ba7f163c4a11628f55a4df523b3ef8360405161149891815260200190565b60405180910390a3505050565b6001600160a01b0383166114c7576114c4600a6106db610e8584611534565b50505b6001600160a01b0382166114e9576114e6600a6106e6610e8584611534565b50505b6001600160a01b038381165f908152600860205260408082205485841683529120546106fe92918216911683610e27565b5f6115286002848418611a98565b6106d490848416611a49565b5f6001600160d01b03821115610c4f576040516306dfcc6560e41b815260d0600482015260248101839052604401610616565b5f5f6115926115746105ac565b61158a611580886109d0565b868863ffffffff16565b8791906115dc565b915091505b935093915050565b60605f6115ab836115e9565b6040805160208082528183019092529192505f91906020820181803683375050509182525060208101929092525090565b5f80611592858585611610565b5f60ff8216601f81111561045257604051632cd44ac360e21b815260040160405180910390fd5b82545f9081908015611706575f61162c876108aa600185611a36565b805490915065ffffffffffff80821691600160301b90046001600160d01b031690881682111561166f57604051632520601d60e01b815260040160405180910390fd5b8765ffffffffffff168265ffffffffffff16036116a857825465ffffffffffff16600160301b6001600160d01b038916021783556116f8565b6040805180820190915265ffffffffffff808a1682526001600160d01b03808a1660208085019182528d54600181018f555f8f81529190912094519151909216600160301b029216919091179101555b945085935061159792505050565b50506040805180820190915265ffffffffffff80851682526001600160d01b0380851660208085019182528854600181018a555f8a815291822095519251909316600160301b029190931617920191909155905081611597565b5f81518084528060208401602086015e5f602082860101526020601f19601f83011685010191505092915050565b602081525f6106d46020830184611760565b80356001600160a01b03811681146117b6575f5ffd5b919050565b5f5f604083850312156117cc575f5ffd5b6117d5836117a0565b946020939093013593505050565b5f5f5f606084860312156117f5575f5ffd5b6117fe846117a0565b925061180c602085016117a0565b929592945050506040919091013590565b5f6020828403121561182d575f5ffd5b6106d4826117a0565b60ff60f81b8816815260e060208201525f61185460e0830189611760565b82810360408401526118668189611760565b606084018890526001600160a01b038716608085015260a0840186905283810360c0850152845180825260208087019350909101905f5b818110156118bb57835183526020938401939092019160010161189d565b50909b9a5050505050505050505050565b5f602082840312156118dc575f5ffd5b5035919050565b5f5f5f5f5f5f60c087890312156118f8575f5ffd5b611901876117a0565b95506020870135945060408701359350606087013560ff81168114611924575f5ffd5b9598949750929560808101359460a0909101359350915050565b5f5f6040838503121561194f575f5ffd5b611958836117a0565b9150611966602084016117a0565b90509250929050565b5f5f60408385031215611980575f5ffd5b611989836117a0565b9150602083013563ffffffff811681146119a1575f5ffd5b809150509250929050565b600181811c908216806119c057607f821691505b6020821081036119de57634e487b7160e01b5f52602260045260245ffd5b50919050565b634e487b7160e01b5f52601160045260245ffd5b6001600160d01b038181168382160190811115610452576104526119e4565b6001600160d01b038281168282160390811115610452576104526119e4565b81810381811115610452576104526119e4565b80820180821115610452576104526119e4565b634e487b7160e01b5f52601260045260245ffd5b634e487b7160e01b5f52602160045260245ffd5b634e487b7160e01b5f52603260045260245ffd5b5f82611ab257634e487b7160e01b5f52601260045260245ffd5b50049056fea2646970667358221220cfa85fe8d9eaf40add87abf9324bd2a57db64aca4f921aaab74e817280a0029064736f6c634300081c0033dec2bacdd2f05b59de34da9b523dff8be42e5e38e818c82fdb0bae774387a724",
  "linkReferences": {},
  "deployedLinkReferences": {}
}